{
  "contractName": "Marketplace",
  "abi": [
    {
      "anonymous": false,
      "inputs": [
        {
          "indexed": true,
          "internalType": "address",
          "name": "previousOwner",
          "type": "address"
        },
        {
          "indexed": true,
          "internalType": "address",
          "name": "newOwner",
          "type": "address"
        }
      ],
      "name": "OwnershipTransferred",
      "type": "event"
    },
    {
      "anonymous": false,
      "inputs": [
        {
          "indexed": false,
          "internalType": "uint256",
          "name": "propertyId",
          "type": "uint256"
        }
      ],
      "name": "deletedSale",
      "type": "event"
    },
    {
      "anonymous": false,
      "inputs": [
        {
          "indexed": false,
          "internalType": "uint256",
          "name": "propertyId",
          "type": "uint256"
        }
      ],
      "name": "newSale",
      "type": "event"
    },
    {
      "inputs": [
        {
          "internalType": "uint32",
          "name": "price",
          "type": "uint32"
        },
        {
          "internalType": "uint16",
          "name": "surface",
          "type": "uint16"
        },
        {
          "internalType": "bytes32",
          "name": "name",
          "type": "bytes32"
        },
        {
          "internalType": "bytes32",
          "name": "addr",
          "type": "bytes32"
        },
        {
          "internalType": "string",
          "name": "description",
          "type": "string"
        },
        {
          "internalType": "bytes32",
          "name": "dateUtc",
          "type": "bytes32"
        }
      ],
      "name": "createProperty",
      "outputs": [],
      "stateMutability": "nonpayable",
      "type": "function"
    },
    {
      "inputs": [],
      "name": "getPropertiesByOwner",
      "outputs": [
        {
          "internalType": "uint256[]",
          "name": "_properties",
          "type": "uint256[]"
        }
      ],
      "stateMutability": "view",
      "type": "function"
    },
    {
      "inputs": [
        {
          "internalType": "uint256",
          "name": "propertyId",
          "type": "uint256"
        }
      ],
      "name": "getProperty",
      "outputs": [
        {
          "components": [
            {
              "internalType": "uint32",
              "name": "price",
              "type": "uint32"
            },
            {
              "internalType": "uint16",
              "name": "surface",
              "type": "uint16"
            },
            {
              "internalType": "bytes32",
              "name": "addr",
              "type": "bytes32"
            },
            {
              "internalType": "bytes32",
              "name": "name",
              "type": "bytes32"
            },
            {
              "internalType": "string",
              "name": "description",
              "type": "string"
            },
            {
              "internalType": "bytes32",
              "name": "dateUtc",
              "type": "bytes32"
            }
          ],
          "internalType": "struct PropertyFactory.Property",
          "name": "_property",
          "type": "tuple"
        }
      ],
      "stateMutability": "view",
      "type": "function"
    },
    {
      "inputs": [
        {
          "internalType": "uint256",
          "name": "",
          "type": "uint256"
        }
      ],
      "name": "marketPlace",
      "outputs": [
        {
          "internalType": "uint256",
          "name": "",
          "type": "uint256"
        }
      ],
      "stateMutability": "view",
      "type": "function"
    },
    {
      "inputs": [],
      "name": "ownable",
      "outputs": [],
      "stateMutability": "nonpayable",
      "type": "function"
    },
    {
      "inputs": [],
      "name": "owner",
      "outputs": [
        {
          "internalType": "address",
          "name": "",
          "type": "address"
        }
      ],
      "stateMutability": "view",
      "type": "function"
    },
    {
      "inputs": [
        {
          "internalType": "address",
          "name": "",
          "type": "address"
        },
        {
          "internalType": "uint256",
          "name": "",
          "type": "uint256"
        }
      ],
      "name": "ownerToProperties",
      "outputs": [
        {
          "internalType": "uint256",
          "name": "",
          "type": "uint256"
        }
      ],
      "stateMutability": "view",
      "type": "function"
    },
    {
      "inputs": [
        {
          "internalType": "uint256",
          "name": "",
          "type": "uint256"
        }
      ],
      "name": "properties",
      "outputs": [
        {
          "internalType": "uint32",
          "name": "price",
          "type": "uint32"
        },
        {
          "internalType": "uint16",
          "name": "surface",
          "type": "uint16"
        },
        {
          "internalType": "bytes32",
          "name": "addr",
          "type": "bytes32"
        },
        {
          "internalType": "bytes32",
          "name": "name",
          "type": "bytes32"
        },
        {
          "internalType": "string",
          "name": "description",
          "type": "string"
        },
        {
          "internalType": "bytes32",
          "name": "dateUtc",
          "type": "bytes32"
        }
      ],
      "stateMutability": "view",
      "type": "function"
    },
    {
      "inputs": [
        {
          "internalType": "uint256",
          "name": "",
          "type": "uint256"
        }
      ],
      "name": "propertyToOwner",
      "outputs": [
        {
          "internalType": "address",
          "name": "",
          "type": "address"
        }
      ],
      "stateMutability": "view",
      "type": "function"
    },
    {
      "inputs": [
        {
          "internalType": "address",
          "name": "newOwner",
          "type": "address"
        }
      ],
      "name": "transferOwnership",
      "outputs": [],
      "stateMutability": "nonpayable",
      "type": "function"
    },
    {
      "inputs": [
        {
          "internalType": "uint256",
          "name": "propertyId",
          "type": "uint256"
        }
      ],
      "name": "addProperty",
      "outputs": [],
      "stateMutability": "nonpayable",
      "type": "function"
    },
    {
      "inputs": [
        {
          "internalType": "uint256",
          "name": "propertyId",
          "type": "uint256"
        }
      ],
      "name": "isForSale",
      "outputs": [
        {
          "internalType": "bool",
          "name": "_isForSale",
          "type": "bool"
        }
      ],
      "stateMutability": "view",
      "type": "function"
    },
    {
      "inputs": [],
      "name": "getMarketPlace",
      "outputs": [
        {
          "internalType": "uint256[]",
          "name": "_marketPlace",
          "type": "uint256[]"
        }
      ],
      "stateMutability": "view",
      "type": "function"
    },
    {
      "inputs": [
        {
          "internalType": "uint256",
          "name": "propertyId",
          "type": "uint256"
        }
      ],
      "name": "removePropertyFromMarketPlace",
      "outputs": [],
      "stateMutability": "nonpayable",
      "type": "function"
    },
    {
      "inputs": [
        {
          "internalType": "uint256",
          "name": "_tokenId",
          "type": "uint256"
        }
      ],
      "name": "transaction",
      "outputs": [],
      "stateMutability": "payable",
      "type": "function"
    }
  ],
  "bytecode": "0x608060405234801561001057600080fd5b50612077806100206000396000f3fe6080604052600436106100e85760003560e01c806364d00c451161008a578063e797888e11610059578063e797888e146102d3578063f2fde38b14610310578063f36b331f14610339578063f7b1080814610376576100e8565b806364d00c45146102295780638546d002146102545780638da5cb5b14610291578063b38854be146102bc576100e8565b8063267982e8116100c6578063267982e81461017e5780632734e146146101a757806332665ffb146101d057806346bd08411461020d576100e8565b806308943727146100ed5780630b56e383146101165780631eba13c114610153575b600080fd5b3480156100f957600080fd5b50610114600480360381019061010f91906118e4565b6103b8565b005b34801561012257600080fd5b5061013d600480360381019061013891906118e4565b610563565b60405161014a9190611bb5565b60405180910390f35b34801561015f57600080fd5b50610168610596565b6040516101759190611bd0565b60405180910390f35b34801561018a57600080fd5b506101a560048036038101906101a091906118e4565b61062b565b005b3480156101b357600080fd5b506101ce60048036038101906101c9919061190d565b6106fb565b005b3480156101dc57600080fd5b506101f760048036038101906101f291906118e4565b610945565b6040516102049190611c0d565b60405180910390f35b610227600480360381019061022291906118e4565b610aae565b005b34801561023557600080fd5b5061023e610e13565b60405161024b9190611bd0565b60405180910390f35b34801561026057600080fd5b5061027b600480360381019061027691906118e4565b610e6b565b6040516102889190611bf2565b60405180910390f35b34801561029d57600080fd5b506102a6610e80565b6040516102b39190611bb5565b60405180910390f35b3480156102c857600080fd5b506102d1610ea4565b005b3480156102df57600080fd5b506102fa60048036038101906102f591906118a8565b610ee6565b6040516103079190611c2f565b60405180910390f35b34801561031c57600080fd5b506103376004803603810190610332919061187f565b610f17565b005b34801561034557600080fd5b50610360600480360381019061035b91906118e4565b611066565b60405161036d9190611c2f565b60405180910390f35b34801561038257600080fd5b5061039d600480360381019061039891906118e4565b61108a565b6040516103af96959493929190611c4a565b60405180910390f35b806002600082815260200190815260200160002060009054906101000a900473ffffffffffffffffffffffffffffffffffffffff1673ffffffffffffffffffffffffffffffffffffffff163373ffffffffffffffffffffffffffffffffffffffff161461042457600080fd5b600061042f8361117c565b90506005805490508110610443575061055f565b60008190505b600160058054905061045b9190611dcf565b81101561050e5760056001826104719190611d79565b815481106104a8577f4e487b7100000000000000000000000000000000000000000000000000000000600052603260045260246000fd5b9060005260206000200154600582815481106104ed577f4e487b7100000000000000000000000000000000000000000000000000000000600052603260045260246000fd5b9060005260206000200181905550808061050690611ee7565b915050610449565b506005805480610547577f4e487b7100000000000000000000000000000000000000000000000000000000600052603160045260246000fd5b60019003818190600052602060002001600090559055505b5050565b60026020528060005260406000206000915054906101000a900473ffffffffffffffffffffffffffffffffffffffff1681565b6060600360003373ffffffffffffffffffffffffffffffffffffffff1673ffffffffffffffffffffffffffffffffffffffff16815260200190815260200160002080548060200260200160405190810160405280929190818152602001828054801561062157602002820191906000526020600020905b81548152602001906001019080831161060d575b5050505050905090565b806002600082815260200190815260200160002060009054906101000a900473ffffffffffffffffffffffffffffffffffffffff1673ffffffffffffffffffffffffffffffffffffffff163373ffffffffffffffffffffffffffffffffffffffff161461069757600080fd5b60058290806001815401808255809150506001900390600052602060002001600090919091909150557f30edb07c99f8ac2382c54e90f4de0a2623f843077198d78f3e75465d5b61320b826040516106ef9190611c2f565b60405180910390a15050565b60016040518060c001604052808863ffffffff1681526020018761ffff16815260200185815260200186815260200184815260200183815250908060018154018082558091505060019003906000526020600020906005020160009091909190915060008201518160000160006101000a81548163ffffffff021916908363ffffffff16021790555060208201518160000160046101000a81548161ffff021916908361ffff160217905550604082015181600101556060820151816002015560808201518160030190805190602001906107d79291906116c2565b5060a08201518160040155505060006001805490509050336002600083815260200190815260200160002060006101000a81548173ffffffffffffffffffffffffffffffffffffffff021916908373ffffffffffffffffffffffffffffffffffffffff160217905550600360003373ffffffffffffffffffffffffffffffffffffffff1673ffffffffffffffffffffffffffffffffffffffff1681526020019081526020016000208190806001815401808255809150506001900390600052602060002001600090919091909150556108f96001600460003373ffffffffffffffffffffffffffffffffffffffff1673ffffffffffffffffffffffffffffffffffffffff1681526020019081526020016000205461122390919063ffffffff16565b600460003373ffffffffffffffffffffffffffffffffffffffff1673ffffffffffffffffffffffffffffffffffffffff1681526020019081526020016000208190555050505050505050565b61094d611748565b816001805490501161095e57600080fd5b60018281548110610998577f4e487b7100000000000000000000000000000000000000000000000000000000600052603260045260246000fd5b90600052602060002090600502016040518060c00160405290816000820160009054906101000a900463ffffffff1663ffffffff1663ffffffff1681526020016000820160049054906101000a900461ffff1661ffff1661ffff1681526020016001820154815260200160028201548152602001600382018054610a1b90611eb5565b80601f0160208091040260200160405190810160405280929190818152602001828054610a4790611eb5565b8015610a945780601f10610a6957610100808354040283529160200191610a94565b820191906000526020600020905b815481529060010190602001808311610a7757829003601f168201915b505050505081526020016004820154815250509050919050565b806000610aba8261117c565b1215610ac557600080fd5b60018181548110610aff577f4e487b7100000000000000000000000000000000000000000000000000000000600052603260045260246000fd5b906000526020600020906005020160000160009054906101000a900463ffffffff1663ffffffff163414610b3257600080fd5b60006002600084815260200190815260200160002060009054906101000a900473ffffffffffffffffffffffffffffffffffffffff1690508073ffffffffffffffffffffffffffffffffffffffff166108fc349081150290604051600060405180830381858888f19350505050158015610bb0573d6000803e3d6000fd5b50610c376001600460006002600088815260200190815260200160002060009054906101000a900473ffffffffffffffffffffffffffffffffffffffff1673ffffffffffffffffffffffffffffffffffffffff1673ffffffffffffffffffffffffffffffffffffffff1681526020019081526020016000205461127590919063ffffffff16565b600460006002600087815260200190815260200160002060009054906101000a900473ffffffffffffffffffffffffffffffffffffffff1673ffffffffffffffffffffffffffffffffffffffff1673ffffffffffffffffffffffffffffffffffffffff16815260200190815260200160002081905550610d006001600460003373ffffffffffffffffffffffffffffffffffffffff1673ffffffffffffffffffffffffffffffffffffffff1681526020019081526020016000205461122390919063ffffffff16565b600460003373ffffffffffffffffffffffffffffffffffffffff1673ffffffffffffffffffffffffffffffffffffffff16815260200190815260200160002081905550336002600085815260200190815260200160002060006101000a81548173ffffffffffffffffffffffffffffffffffffffff021916908373ffffffffffffffffffffffffffffffffffffffff160217905550610d9f83826112c2565b600360003373ffffffffffffffffffffffffffffffffffffffff1673ffffffffffffffffffffffffffffffffffffffff168152602001908152602001600020839080600181540180825580915050600190039060005260206000200160009091909190915055610e0e836103b8565b505050565b60606005805480602002602001604051908101604052809291908181526020018280548015610e6157602002820191906000526020600020905b815481526020019060010190808311610e4d575b5050505050905090565b600080610e778361117c565b12159050919050565b60008054906101000a900473ffffffffffffffffffffffffffffffffffffffff1681565b336000806101000a81548173ffffffffffffffffffffffffffffffffffffffff021916908373ffffffffffffffffffffffffffffffffffffffff160217905550565b60036020528160005260406000208181548110610f0257600080fd5b90600052602060002001600091509150505481565b60008054906101000a900473ffffffffffffffffffffffffffffffffffffffff1673ffffffffffffffffffffffffffffffffffffffff163373ffffffffffffffffffffffffffffffffffffffff1614610f6f57600080fd5b600073ffffffffffffffffffffffffffffffffffffffff168173ffffffffffffffffffffffffffffffffffffffff161415610fa957600080fd5b8073ffffffffffffffffffffffffffffffffffffffff1660008054906101000a900473ffffffffffffffffffffffffffffffffffffffff1673ffffffffffffffffffffffffffffffffffffffff167f8be0079c531659141344cd1fd0a4f28419497f9722a3daafe3b4186f6b6457e060405160405180910390a3806000806101000a81548173ffffffffffffffffffffffffffffffffffffffff021916908373ffffffffffffffffffffffffffffffffffffffff16021790555050565b6005818154811061107657600080fd5b906000526020600020016000915090505481565b6001818154811061109a57600080fd5b90600052602060002090600502016000915090508060000160009054906101000a900463ffffffff16908060000160049054906101000a900461ffff16908060010154908060020154908060030180546110f390611eb5565b80601f016020809104026020016040519081016040528092919081815260200182805461111f90611eb5565b801561116c5780601f106111415761010080835404028352916020019161116c565b820191906000526020600020905b81548152906001019060200180831161114f57829003601f168201915b5050505050908060040154905086565b600080600090505b6005805490508110156111f95782600582815481106111cc577f4e487b7100000000000000000000000000000000000000000000000000000000600052603260045260246000fd5b906000526020600020015414156111e6578091505061121e565b80806111f190611ee7565b915050611184565b507fffffffffffffffffffffffffffffffffffffffffffffffffffffffffffffffff90505b919050565b60008082846112329190611d79565b90508381101561126b577f4e487b7100000000000000000000000000000000000000000000000000000000600052600160045260246000fd5b8091505092915050565b6000828211156112ae577f4e487b7100000000000000000000000000000000000000000000000000000000600052600160045260246000fd5b81836112ba9190611dcf565b905092915050565b816002600082815260200190815260200160002060009054906101000a900473ffffffffffffffffffffffffffffffffffffffff1673ffffffffffffffffffffffffffffffffffffffff163373ffffffffffffffffffffffffffffffffffffffff161461132e57600080fd5b600061133a84846115a0565b9050600360008473ffffffffffffffffffffffffffffffffffffffff1673ffffffffffffffffffffffffffffffffffffffff16815260200190815260200160002080549050811061138b575061159b565b60008190505b6001600360008673ffffffffffffffffffffffffffffffffffffffff1673ffffffffffffffffffffffffffffffffffffffff168152602001908152602001600020805490506113e09190611dcf565b81101561150d57600360008573ffffffffffffffffffffffffffffffffffffffff1673ffffffffffffffffffffffffffffffffffffffff1681526020019081526020016000206001826114339190611d79565b8154811061146a577f4e487b7100000000000000000000000000000000000000000000000000000000600052603260045260246000fd5b9060005260206000200154600360008673ffffffffffffffffffffffffffffffffffffffff1673ffffffffffffffffffffffffffffffffffffffff16815260200190815260200160002082815481106114ec577f4e487b7100000000000000000000000000000000000000000000000000000000600052603260045260246000fd5b9060005260206000200181905550808061150590611ee7565b915050611391565b50600360008473ffffffffffffffffffffffffffffffffffffffff1673ffffffffffffffffffffffffffffffffffffffff168152602001908152602001600020805480611583577f4e487b7100000000000000000000000000000000000000000000000000000000600052603160045260246000fd5b60019003818190600052602060002001600090559055505b505050565b600080600090505b600360008473ffffffffffffffffffffffffffffffffffffffff1673ffffffffffffffffffffffffffffffffffffffff168152602001908152602001600020805490508110156116975783600360008573ffffffffffffffffffffffffffffffffffffffff1673ffffffffffffffffffffffffffffffffffffffff168152602001908152602001600020828154811061166a577f4e487b7100000000000000000000000000000000000000000000000000000000600052603260045260246000fd5b9060005260206000200154141561168457809150506116bc565b808061168f90611ee7565b9150506115a8565b507fffffffffffffffffffffffffffffffffffffffffffffffffffffffffffffffff90505b92915050565b8280546116ce90611eb5565b90600052602060002090601f0160209004810192826116f05760008555611737565b82601f1061170957805160ff1916838001178555611737565b82800160010185558215611737579182015b8281111561173657825182559160200191906001019061171b565b5b5090506117449190611791565b5090565b6040518060c00160405280600063ffffffff168152602001600061ffff168152602001600080191681526020016000801916815260200160608152602001600080191681525090565b5b808211156117aa576000816000905550600101611792565b5090565b60006117c16117bc84611ce3565b611cb2565b9050828152602081018484840111156117d957600080fd5b6117e4848285611e73565b509392505050565b6000813590506117fb81611fce565b92915050565b60008135905061181081611fe5565b92915050565b600082601f83011261182757600080fd5b81356118378482602086016117ae565b91505092915050565b60008135905061184f81611ffc565b92915050565b60008135905061186481612013565b92915050565b6000813590506118798161202a565b92915050565b60006020828403121561189157600080fd5b600061189f848285016117ec565b91505092915050565b600080604083850312156118bb57600080fd5b60006118c9858286016117ec565b92505060206118da85828601611855565b9150509250929050565b6000602082840312156118f657600080fd5b600061190484828501611855565b91505092915050565b60008060008060008060c0878903121561192657600080fd5b600061193489828a0161186a565b965050602061194589828a01611840565b955050604061195689828a01611801565b945050606061196789828a01611801565b935050608087013567ffffffffffffffff81111561198457600080fd5b61199089828a01611816565b92505060a06119a189828a01611801565b9150509295509295509295565b60006119ba8383611b79565b60208301905092915050565b6119cf81611e03565b82525050565b60006119e082611d23565b6119ea8185611d46565b93506119f583611d13565b8060005b83811015611a26578151611a0d88826119ae565b9750611a1883611d39565b9250506001810190506119f9565b5085935050505092915050565b611a3c81611e15565b82525050565b611a4b81611e21565b82525050565b611a5a81611e21565b82525050565b6000611a6b82611d2e565b611a758185611d57565b9350611a85818560208601611e82565b611a8e81611fbd565b840191505092915050565b6000611aa482611d2e565b611aae8185611d68565b9350611abe818560208601611e82565b611ac781611fbd565b840191505092915050565b600060c083016000830151611aea6000860182611b97565b506020830151611afd6020860182611b5b565b506040830151611b106040860182611a42565b506060830151611b236060860182611a42565b5060808301518482036080860152611b3b8282611a60565b91505060a0830151611b5060a0860182611a42565b508091505092915050565b611b6481611e2b565b82525050565b611b7381611e2b565b82525050565b611b8281611e59565b82525050565b611b9181611e59565b82525050565b611ba081611e63565b82525050565b611baf81611e63565b82525050565b6000602082019050611bca60008301846119c6565b92915050565b60006020820190508181036000830152611bea81846119d5565b905092915050565b6000602082019050611c076000830184611a33565b92915050565b60006020820190508181036000830152611c278184611ad2565b905092915050565b6000602082019050611c446000830184611b88565b92915050565b600060c082019050611c5f6000830189611ba6565b611c6c6020830188611b6a565b611c796040830187611a51565b611c866060830186611a51565b8181036080830152611c988185611a99565b9050611ca760a0830184611a51565b979650505050505050565b6000604051905081810181811067ffffffffffffffff82111715611cd957611cd8611f8e565b5b8060405250919050565b600067ffffffffffffffff821115611cfe57611cfd611f8e565b5b601f19601f8301169050602081019050919050565b6000819050602082019050919050565b600081519050919050565b600081519050919050565b6000602082019050919050565b600082825260208201905092915050565b600082825260208201905092915050565b600082825260208201905092915050565b6000611d8482611e59565b9150611d8f83611e59565b9250827fffffffffffffffffffffffffffffffffffffffffffffffffffffffffffffffff03821115611dc457611dc3611f30565b5b828201905092915050565b6000611dda82611e59565b9150611de583611e59565b925082821015611df857611df7611f30565b5b828203905092915050565b6000611e0e82611e39565b9050919050565b60008115159050919050565b6000819050919050565b600061ffff82169050919050565b600073ffffffffffffffffffffffffffffffffffffffff82169050919050565b6000819050919050565b600063ffffffff82169050919050565b82818337600083830152505050565b60005b83811015611ea0578082015181840152602081019050611e85565b83811115611eaf576000848401525b50505050565b60006002820490506001821680611ecd57607f821691505b60208210811415611ee157611ee0611f5f565b5b50919050565b6000611ef282611e59565b91507fffffffffffffffffffffffffffffffffffffffffffffffffffffffffffffffff821415611f2557611f24611f30565b5b600182019050919050565b7f4e487b7100000000000000000000000000000000000000000000000000000000600052601160045260246000fd5b7f4e487b7100000000000000000000000000000000000000000000000000000000600052602260045260246000fd5b7f4e487b7100000000000000000000000000000000000000000000000000000000600052604160045260246000fd5b6000601f19601f8301169050919050565b611fd781611e03565b8114611fe257600080fd5b50565b611fee81611e21565b8114611ff957600080fd5b50565b61200581611e2b565b811461201057600080fd5b50565b61201c81611e59565b811461202757600080fd5b50565b61203381611e63565b811461203e57600080fd5b5056fea26469706673582212208afee4c099048ae48ba39fd7609000ecf77dd7bed07745c64cc7151a5fb8360364736f6c63430008000033",
  "immutableReferences": {},
  "source": "// SPDX-License-Identifier: MIT\npragma solidity = 0.8.0;\n\nimport \"./PropertyFactory.sol\";\n\n\ncontract Marketplace is PropertyFactory {\n    using SafeMath for uint256;\n\n    modifier onlyPropertyForSale(uint _propertyId) {\n        require(IndexOfMarketPlace(_propertyId) >= 0);\n        require(msg.value == properties[_propertyId].price);\n        _;\n    }\n\n    event newSale(uint propertyId);\n    event deletedSale(uint propertyId);\n\n    uint[] public marketPlace;\n\n    function addProperty(uint propertyId) public onlyOwnerOf(propertyId) {\n        marketPlace.push(propertyId);\n        emit newSale(propertyId);\n    }\n\n    function isForSale(uint propertyId) public view returns (bool _isForSale) {\n        return IndexOfMarketPlace(propertyId) >= 0;\n    }\n\n    function getMarketPlace() public view returns (uint[] memory _marketPlace) {\n        return marketPlace;\n    }\n\n    function removePropertyFromMarketPlace(uint propertyId) public onlyOwnerOf(propertyId) {\n        int index = IndexOfMarketPlace(propertyId);\n        if (uint(index) >= marketPlace.length) return;\n\n        for (uint i = uint(index); i<marketPlace.length-1; i++){\n            marketPlace[i] = marketPlace[i+1];\n        }\n        marketPlace.pop();\n    }\n\n    function transaction(uint256 _tokenId) public payable onlyPropertyForSale(_tokenId) {\n        address payable _from = payable(propertyToOwner[_tokenId]);\n        _from.transfer(msg.value);\n        ownerPropertyCount[propertyToOwner[_tokenId]] = ownerPropertyCount[propertyToOwner[_tokenId]].sub(1);\n        ownerPropertyCount[msg.sender] = ownerPropertyCount[msg.sender].add(1);\n        propertyToOwner[_tokenId] = msg.sender;\n        removePropertyFromOwner(_tokenId, _from);\n        ownerToProperties[msg.sender].push(_tokenId);\n        removePropertyFromMarketPlace(_tokenId);\n    }\n\n    function removePropertyFromOwner(uint propertyId, address owner) private onlyOwnerOf(propertyId) {\n        int index = IndexOfOwnerProperties(propertyId, owner);\n        if (uint(index) >= ownerToProperties[owner].length) return;\n\n        for (uint i = uint(index); i<ownerToProperties[owner].length-1; i++){\n            ownerToProperties[owner][i] = ownerToProperties[owner][i+1];\n        }\n        ownerToProperties[owner].pop();\n    }\n\n    function IndexOfOwnerProperties(uint value, address owner) private view returns(int) {\n        for(uint index = 0; index < ownerToProperties[owner].length; index++) {\n            if (ownerToProperties[owner][index] == value) {\n                return int(index);\n            }\n        }\n        return -1;\n    }\n\n    function IndexOfMarketPlace(uint value) private view returns(int) {\n        for(uint index = 0; index < marketPlace.length; index++) {\n            if (marketPlace[index] == value) {\n                return int(index);\n            }\n        }\n        return -1;\n    }\n}\n",
  "sourcePath": "/home/shengael/Documents/__esgi/2020_2021/blockchain/BLAPimmo/contracts/Marketplace.sol",
  "compiler": {
    "name": "solc",
    "version": "0.8.0+commit.c7dfd78e.Emscripten.clang"
  },
  "schemaVersion": "3.3.3",
  "updatedAt": "2021-01-18T22:39:26.579Z",
  "devdoc": {
    "kind": "dev",
    "methods": {
      "ownable()": {
        "details": "The Ownable constructor sets the original `owner` of the contract to the sender account."
      },
      "transferOwnership(address)": {
        "details": "Allows the current owner to transfer control of the contract to a newOwner.",
        "params": {
          "newOwner": "The address to transfer ownership to."
        }
      }
    },
    "version": 1
  },
  "userdoc": {
    "kind": "user",
    "methods": {},
    "version": 1
  }
}