{
  "contractName": "Marketplace",
  "abi": [
    {
      "anonymous": false,
      "inputs": [
        {
          "indexed": true,
          "internalType": "address",
          "name": "previousOwner",
          "type": "address"
        },
        {
          "indexed": true,
          "internalType": "address",
          "name": "newOwner",
          "type": "address"
        }
      ],
      "name": "OwnershipTransferred",
      "type": "event"
    },
    {
      "anonymous": false,
      "inputs": [
        {
          "indexed": false,
          "internalType": "uint256",
          "name": "propertyId",
          "type": "uint256"
        }
      ],
      "name": "deletedSale",
      "type": "event"
    },
    {
      "anonymous": false,
      "inputs": [
        {
          "indexed": false,
          "internalType": "uint256",
          "name": "propertyId",
          "type": "uint256"
        }
      ],
      "name": "newSale",
      "type": "event"
    },
    {
      "inputs": [
        {
          "internalType": "uint32",
          "name": "price",
          "type": "uint32"
        },
        {
          "internalType": "uint16",
          "name": "surface",
          "type": "uint16"
        },
        {
          "internalType": "bytes32",
          "name": "name",
          "type": "bytes32"
        },
        {
          "internalType": "bytes32",
          "name": "addr",
          "type": "bytes32"
        },
        {
          "internalType": "string",
          "name": "description",
          "type": "string"
        },
        {
          "internalType": "bytes32",
          "name": "dateUtc",
          "type": "bytes32"
        }
      ],
      "name": "createProperty",
      "outputs": [],
      "stateMutability": "nonpayable",
      "type": "function"
    },
    {
      "inputs": [],
      "name": "getPropertiesByOwner",
      "outputs": [
        {
          "internalType": "uint256[]",
          "name": "_properties",
          "type": "uint256[]"
        }
      ],
      "stateMutability": "view",
      "type": "function"
    },
    {
      "inputs": [
        {
          "internalType": "uint256",
          "name": "propertyId",
          "type": "uint256"
        }
      ],
      "name": "getProperty",
      "outputs": [
        {
          "components": [
            {
              "internalType": "uint32",
              "name": "price",
              "type": "uint32"
            },
            {
              "internalType": "uint16",
              "name": "surface",
              "type": "uint16"
            },
            {
              "internalType": "bytes32",
              "name": "addr",
              "type": "bytes32"
            },
            {
              "internalType": "bytes32",
              "name": "name",
              "type": "bytes32"
            },
            {
              "internalType": "string",
              "name": "description",
              "type": "string"
            },
            {
              "internalType": "bytes32",
              "name": "dateUtc",
              "type": "bytes32"
            }
          ],
          "internalType": "struct PropertyFactory.Property",
          "name": "_property",
          "type": "tuple"
        }
      ],
      "stateMutability": "view",
      "type": "function"
    },
    {
      "inputs": [],
      "name": "init",
      "outputs": [
        {
          "internalType": "uint256",
          "name": "index",
          "type": "uint256"
        }
      ],
      "stateMutability": "nonpayable",
      "type": "function"
    },
    {
      "inputs": [
        {
          "internalType": "uint256",
          "name": "",
          "type": "uint256"
        }
      ],
      "name": "marketPlace",
      "outputs": [
        {
          "internalType": "uint256",
          "name": "",
          "type": "uint256"
        }
      ],
      "stateMutability": "view",
      "type": "function"
    },
    {
      "inputs": [],
      "name": "ownable",
      "outputs": [],
      "stateMutability": "nonpayable",
      "type": "function"
    },
    {
      "inputs": [],
      "name": "owner",
      "outputs": [
        {
          "internalType": "address",
          "name": "",
          "type": "address"
        }
      ],
      "stateMutability": "view",
      "type": "function"
    },
    {
      "inputs": [
        {
          "internalType": "address",
          "name": "",
          "type": "address"
        },
        {
          "internalType": "uint256",
          "name": "",
          "type": "uint256"
        }
      ],
      "name": "ownerToProperties",
      "outputs": [
        {
          "internalType": "uint256",
          "name": "",
          "type": "uint256"
        }
      ],
      "stateMutability": "view",
      "type": "function"
    },
    {
      "inputs": [
        {
          "internalType": "uint256",
          "name": "",
          "type": "uint256"
        }
      ],
      "name": "properties",
      "outputs": [
        {
          "internalType": "uint32",
          "name": "price",
          "type": "uint32"
        },
        {
          "internalType": "uint16",
          "name": "surface",
          "type": "uint16"
        },
        {
          "internalType": "bytes32",
          "name": "addr",
          "type": "bytes32"
        },
        {
          "internalType": "bytes32",
          "name": "name",
          "type": "bytes32"
        },
        {
          "internalType": "string",
          "name": "description",
          "type": "string"
        },
        {
          "internalType": "bytes32",
          "name": "dateUtc",
          "type": "bytes32"
        }
      ],
      "stateMutability": "view",
      "type": "function"
    },
    {
      "inputs": [
        {
          "internalType": "uint256",
          "name": "",
          "type": "uint256"
        }
      ],
      "name": "propertyToOwner",
      "outputs": [
        {
          "internalType": "address",
          "name": "",
          "type": "address"
        }
      ],
      "stateMutability": "view",
      "type": "function"
    },
    {
      "inputs": [
        {
          "internalType": "address",
          "name": "newOwner",
          "type": "address"
        }
      ],
      "name": "transferOwnership",
      "outputs": [],
      "stateMutability": "nonpayable",
      "type": "function"
    },
    {
      "inputs": [
        {
          "internalType": "uint256",
          "name": "propertyId",
          "type": "uint256"
        }
      ],
      "name": "addProperty",
      "outputs": [],
      "stateMutability": "nonpayable",
      "type": "function"
    },
    {
      "inputs": [
        {
          "internalType": "uint256",
          "name": "propertyId",
          "type": "uint256"
        }
      ],
      "name": "isForSale",
      "outputs": [
        {
          "internalType": "bool",
          "name": "_isForSale",
          "type": "bool"
        }
      ],
      "stateMutability": "view",
      "type": "function"
    },
    {
      "inputs": [],
      "name": "getMarketPlace",
      "outputs": [
        {
          "internalType": "uint256[]",
          "name": "_marketPlace",
          "type": "uint256[]"
        }
      ],
      "stateMutability": "view",
      "type": "function"
    },
    {
      "inputs": [
        {
          "internalType": "uint256",
          "name": "propertyId",
          "type": "uint256"
        }
      ],
      "name": "removeProperty",
      "outputs": [],
      "stateMutability": "nonpayable",
      "type": "function"
    },
    {
      "inputs": [
        {
          "internalType": "uint256",
          "name": "_tokenId",
          "type": "uint256"
        }
      ],
      "name": "transaction",
      "outputs": [],
      "stateMutability": "payable",
      "type": "function"
    }
  ],
  "bytecode": "0x608060405234801561001057600080fd5b50611cd1806100206000396000f3fe6080604052600436106100f35760003560e01c80638da5cb5b1161008a578063e797888e11610059578063e797888e14610309578063f2fde38b14610346578063f36b331f1461036f578063f7b10808146103ac576100f3565b80638da5cb5b14610273578063b38854be1461029e578063bc43d06f146102b5578063e1c7392a146102de576100f3565b806332665ffb116100c657806332665ffb146101b257806346bd0841146101ef57806364d00c451461020b5780638546d00214610236576100f3565b80630b56e383146100f85780631eba13c114610135578063267982e8146101605780632734e14614610189575b600080fd5b34801561010457600080fd5b5061011f600480360381019061011a919061153e565b6103ee565b60405161012c919061180f565b60405180910390f35b34801561014157600080fd5b5061014a610421565b604051610157919061182a565b60405180910390f35b34801561016c57600080fd5b506101876004803603810190610182919061153e565b6104b6565b005b34801561019557600080fd5b506101b060048036038101906101ab9190611567565b610586565b005b3480156101be57600080fd5b506101d960048036038101906101d4919061153e565b6107db565b6040516101e69190611867565b60405180910390f35b6102096004803603810190610204919061153e565b610944565b005b34801561021757600080fd5b50610220610bd3565b60405161022d919061182a565b60405180910390f35b34801561024257600080fd5b5061025d6004803603810190610258919061153e565b610c2b565b60405161026a919061184c565b60405180910390f35b34801561027f57600080fd5b50610288610c40565b604051610295919061180f565b60405180910390f35b3480156102aa57600080fd5b506102b3610c64565b005b3480156102c157600080fd5b506102dc60048036038101906102d7919061153e565b610ca6565b005b3480156102ea57600080fd5b506102f3610dac565b6040516103009190611889565b60405180910390f35b34801561031557600080fd5b50610330600480360381019061032b9190611502565b610f40565b60405161033d9190611889565b60405180910390f35b34801561035257600080fd5b5061036d600480360381019061036891906114d9565b610f71565b005b34801561037b57600080fd5b506103966004803603810190610391919061153e565b6110c0565b6040516103a39190611889565b60405180910390f35b3480156103b857600080fd5b506103d360048036038101906103ce919061153e565b6110e4565b6040516103e5969594939291906118a4565b60405180910390f35b60026020528060005260406000206000915054906101000a900473ffffffffffffffffffffffffffffffffffffffff1681565b6060600360003373ffffffffffffffffffffffffffffffffffffffff1673ffffffffffffffffffffffffffffffffffffffff1681526020019081526020016000208054806020026020016040519081016040528092919081815260200182805480156104ac57602002820191906000526020600020905b815481526020019060010190808311610498575b5050505050905090565b806002600082815260200190815260200160002060009054906101000a900473ffffffffffffffffffffffffffffffffffffffff1673ffffffffffffffffffffffffffffffffffffffff163373ffffffffffffffffffffffffffffffffffffffff161461052257600080fd5b60058290806001815401808255809150506001900390600052602060002001600090919091909150557f30edb07c99f8ac2382c54e90f4de0a2623f843077198d78f3e75465d5b61320b8260405161057a9190611889565b60405180910390a15050565b60016040518060c001604052808863ffffffff1681526020018761ffff16815260200185815260200186815260200184815260200183815250908060018154018082558091505060019003906000526020600020906005020160009091909190915060008201518160000160006101000a81548163ffffffff021916908363ffffffff16021790555060208201518160000160046101000a81548161ffff021916908361ffff1602179055506040820151816001015560608201518160020155608082015181600301908051906020019061066292919061131c565b5060a08201518160040155505060006001808054905061068291906119d3565b9050336002600083815260200190815260200160002060006101000a81548173ffffffffffffffffffffffffffffffffffffffff021916908373ffffffffffffffffffffffffffffffffffffffff160217905550600360003373ffffffffffffffffffffffffffffffffffffffff1673ffffffffffffffffffffffffffffffffffffffff16815260200190815260200160002081908060018154018082558091505060019003906000526020600020016000909190919091505561078f6001600460003373ffffffffffffffffffffffffffffffffffffffff1673ffffffffffffffffffffffffffffffffffffffff168152602001908152602001600020546111d690919063ffffffff16565b600460003373ffffffffffffffffffffffffffffffffffffffff1673ffffffffffffffffffffffffffffffffffffffff1681526020019081526020016000208190555050505050505050565b6107e36113a2565b81600180549050116107f457600080fd5b6001828154811061082e577f4e487b7100000000000000000000000000000000000000000000000000000000600052603260045260246000fd5b90600052602060002090600502016040518060c00160405290816000820160009054906101000a900463ffffffff1663ffffffff1663ffffffff1681526020016000820160049054906101000a900461ffff1661ffff1661ffff16815260200160018201548152602001600282015481526020016003820180546108b190611b0f565b80601f01602080910402602001604051908101604052809291908181526020018280546108dd90611b0f565b801561092a5780601f106108ff5761010080835404028352916020019161092a565b820191906000526020600020905b81548152906001019060200180831161090d57829003601f168201915b505050505081526020016004820154815250509050919050565b80600061095082611228565b121561095b57600080fd5b60018181548110610995577f4e487b7100000000000000000000000000000000000000000000000000000000600052603260045260246000fd5b906000526020600020906005020160000160009054906101000a900463ffffffff1663ffffffff1634146109c857600080fd5b60006002600084815260200190815260200160002060009054906101000a900473ffffffffffffffffffffffffffffffffffffffff1690508073ffffffffffffffffffffffffffffffffffffffff166108fc349081150290604051600060405180830381858888f19350505050158015610a46573d6000803e3d6000fd5b50610a9a6001600460008473ffffffffffffffffffffffffffffffffffffffff1673ffffffffffffffffffffffffffffffffffffffff168152602001908152602001600020546112cf90919063ffffffff16565b600460008373ffffffffffffffffffffffffffffffffffffffff1673ffffffffffffffffffffffffffffffffffffffff16815260200190815260200160002081905550610b306001600460003373ffffffffffffffffffffffffffffffffffffffff1673ffffffffffffffffffffffffffffffffffffffff168152602001908152602001600020546111d690919063ffffffff16565b600460003373ffffffffffffffffffffffffffffffffffffffff1673ffffffffffffffffffffffffffffffffffffffff16815260200190815260200160002081905550336002600085815260200190815260200160002060006101000a81548173ffffffffffffffffffffffffffffffffffffffff021916908373ffffffffffffffffffffffffffffffffffffffff160217905550610bce83610ca6565b505050565b60606005805480602002602001604051908101604052809291908181526020018280548015610c2157602002820191906000526020600020905b815481526020019060010190808311610c0d575b5050505050905090565b600080610c3783611228565b12159050919050565b60008054906101000a900473ffffffffffffffffffffffffffffffffffffffff1681565b336000806101000a81548173ffffffffffffffffffffffffffffffffffffffff021916908373ffffffffffffffffffffffffffffffffffffffff160217905550565b806002600082815260200190815260200160002060009054906101000a900473ffffffffffffffffffffffffffffffffffffffff1673ffffffffffffffffffffffffffffffffffffffff163373ffffffffffffffffffffffffffffffffffffffff1614610d1257600080fd5b6000610d1d83611228565b905060008112610da7577f47b41e33b975d7fb03e5c7ee8fa8e3f9caff8600d16df3308d77244f0913254b83604051610d569190611889565b60405180910390a160058181548110610d98577f4e487b7100000000000000000000000000000000000000000000000000000000600052603260045260246000fd5b90600052602060002001600090555b505050565b600060016040518060c001604052806203d09063ffffffff168152602001603261ffff1681526020017f32343220666175626f757267207361696e7420616e746f696e6500000000000060001b81526020017f68656c6c6f20776f726c6400000000000000000000000000000000000000000060001b81526020016040518060400160405280601981526020017f617070617274656d656e7420617665632074657272617373650000000000000081525081526020017f323032312d30312d31365431333a32333a31315a00000000000000000000000060001b815250908060018154018082558091505060019003906000526020600020906005020160009091909190915060008201518160000160006101000a81548163ffffffff021916908363ffffffff16021790555060208201518160000160046101000a81548161ffff021916908361ffff16021790555060408201518160010155606082015181600201556080820151816003019080519060200190610f2c92919061131c565b5060a0820151816004015550506001905090565b60036020528160005260406000208181548110610f5c57600080fd5b90600052602060002001600091509150505481565b60008054906101000a900473ffffffffffffffffffffffffffffffffffffffff1673ffffffffffffffffffffffffffffffffffffffff163373ffffffffffffffffffffffffffffffffffffffff1614610fc957600080fd5b600073ffffffffffffffffffffffffffffffffffffffff168173ffffffffffffffffffffffffffffffffffffffff16141561100357600080fd5b8073ffffffffffffffffffffffffffffffffffffffff1660008054906101000a900473ffffffffffffffffffffffffffffffffffffffff1673ffffffffffffffffffffffffffffffffffffffff167f8be0079c531659141344cd1fd0a4f28419497f9722a3daafe3b4186f6b6457e060405160405180910390a3806000806101000a81548173ffffffffffffffffffffffffffffffffffffffff021916908373ffffffffffffffffffffffffffffffffffffffff16021790555050565b600581815481106110d057600080fd5b906000526020600020016000915090505481565b600181815481106110f457600080fd5b90600052602060002090600502016000915090508060000160009054906101000a900463ffffffff16908060000160049054906101000a900461ffff169080600101549080600201549080600301805461114d90611b0f565b80601f016020809104026020016040519081016040528092919081815260200182805461117990611b0f565b80156111c65780601f1061119b576101008083540402835291602001916111c6565b820191906000526020600020905b8154815290600101906020018083116111a957829003601f168201915b5050505050908060040154905086565b60008082846111e591906119d3565b90508381101561121e577f4e487b7100000000000000000000000000000000000000000000000000000000600052600160045260246000fd5b8091505092915050565b600080600090505b6005805490508110156112a5578260058281548110611278577f4e487b7100000000000000000000000000000000000000000000000000000000600052603260045260246000fd5b9060005260206000200154141561129257809150506112ca565b808061129d90611b41565b915050611230565b507fffffffffffffffffffffffffffffffffffffffffffffffffffffffffffffffff90505b919050565b600082821115611308577f4e487b7100000000000000000000000000000000000000000000000000000000600052600160045260246000fd5b81836113149190611a29565b905092915050565b82805461132890611b0f565b90600052602060002090601f01602090048101928261134a5760008555611391565b82601f1061136357805160ff1916838001178555611391565b82800160010185558215611391579182015b82811115611390578251825591602001919060010190611375565b5b50905061139e91906113eb565b5090565b6040518060c00160405280600063ffffffff168152602001600061ffff168152602001600080191681526020016000801916815260200160608152602001600080191681525090565b5b808211156114045760008160009055506001016113ec565b5090565b600061141b6114168461193d565b61190c565b90508281526020810184848401111561143357600080fd5b61143e848285611acd565b509392505050565b60008135905061145581611c28565b92915050565b60008135905061146a81611c3f565b92915050565b600082601f83011261148157600080fd5b8135611491848260208601611408565b91505092915050565b6000813590506114a981611c56565b92915050565b6000813590506114be81611c6d565b92915050565b6000813590506114d381611c84565b92915050565b6000602082840312156114eb57600080fd5b60006114f984828501611446565b91505092915050565b6000806040838503121561151557600080fd5b600061152385828601611446565b9250506020611534858286016114af565b9150509250929050565b60006020828403121561155057600080fd5b600061155e848285016114af565b91505092915050565b60008060008060008060c0878903121561158057600080fd5b600061158e89828a016114c4565b965050602061159f89828a0161149a565b95505060406115b089828a0161145b565b94505060606115c189828a0161145b565b935050608087013567ffffffffffffffff8111156115de57600080fd5b6115ea89828a01611470565b92505060a06115fb89828a0161145b565b9150509295509295509295565b600061161483836117d3565b60208301905092915050565b61162981611a5d565b82525050565b600061163a8261197d565b61164481856119a0565b935061164f8361196d565b8060005b838110156116805781516116678882611608565b975061167283611993565b925050600181019050611653565b5085935050505092915050565b61169681611a6f565b82525050565b6116a581611a7b565b82525050565b6116b481611a7b565b82525050565b60006116c582611988565b6116cf81856119b1565b93506116df818560208601611adc565b6116e881611c17565b840191505092915050565b60006116fe82611988565b61170881856119c2565b9350611718818560208601611adc565b61172181611c17565b840191505092915050565b600060c08301600083015161174460008601826117f1565b50602083015161175760208601826117b5565b50604083015161176a604086018261169c565b50606083015161177d606086018261169c565b506080830151848203608086015261179582826116ba565b91505060a08301516117aa60a086018261169c565b508091505092915050565b6117be81611a85565b82525050565b6117cd81611a85565b82525050565b6117dc81611ab3565b82525050565b6117eb81611ab3565b82525050565b6117fa81611abd565b82525050565b61180981611abd565b82525050565b60006020820190506118246000830184611620565b92915050565b60006020820190508181036000830152611844818461162f565b905092915050565b6000602082019050611861600083018461168d565b92915050565b60006020820190508181036000830152611881818461172c565b905092915050565b600060208201905061189e60008301846117e2565b92915050565b600060c0820190506118b96000830189611800565b6118c660208301886117c4565b6118d360408301876116ab565b6118e060608301866116ab565b81810360808301526118f281856116f3565b905061190160a08301846116ab565b979650505050505050565b6000604051905081810181811067ffffffffffffffff8211171561193357611932611be8565b5b8060405250919050565b600067ffffffffffffffff82111561195857611957611be8565b5b601f19601f8301169050602081019050919050565b6000819050602082019050919050565b600081519050919050565b600081519050919050565b6000602082019050919050565b600082825260208201905092915050565b600082825260208201905092915050565b600082825260208201905092915050565b60006119de82611ab3565b91506119e983611ab3565b9250827fffffffffffffffffffffffffffffffffffffffffffffffffffffffffffffffff03821115611a1e57611a1d611b8a565b5b828201905092915050565b6000611a3482611ab3565b9150611a3f83611ab3565b925082821015611a5257611a51611b8a565b5b828203905092915050565b6000611a6882611a93565b9050919050565b60008115159050919050565b6000819050919050565b600061ffff82169050919050565b600073ffffffffffffffffffffffffffffffffffffffff82169050919050565b6000819050919050565b600063ffffffff82169050919050565b82818337600083830152505050565b60005b83811015611afa578082015181840152602081019050611adf565b83811115611b09576000848401525b50505050565b60006002820490506001821680611b2757607f821691505b60208210811415611b3b57611b3a611bb9565b5b50919050565b6000611b4c82611ab3565b91507fffffffffffffffffffffffffffffffffffffffffffffffffffffffffffffffff821415611b7f57611b7e611b8a565b5b600182019050919050565b7f4e487b7100000000000000000000000000000000000000000000000000000000600052601160045260246000fd5b7f4e487b7100000000000000000000000000000000000000000000000000000000600052602260045260246000fd5b7f4e487b7100000000000000000000000000000000000000000000000000000000600052604160045260246000fd5b6000601f19601f8301169050919050565b611c3181611a5d565b8114611c3c57600080fd5b50565b611c4881611a7b565b8114611c5357600080fd5b50565b611c5f81611a85565b8114611c6a57600080fd5b50565b611c7681611ab3565b8114611c8157600080fd5b50565b611c8d81611abd565b8114611c9857600080fd5b5056fea2646970667358221220f71ddf890ea4392c855629d809a490562d2e4e83898ff43344e980b8c65340db64736f6c63430008000033",
  "immutableReferences": {},
  "source": "// SPDX-License-Identifier: MIT\npragma solidity = 0.8.0;\n\nimport \"./PropertyFactory.sol\";\n\n\ncontract Marketplace is PropertyFactory {\n    using SafeMath for uint256;\n\n    modifier onlyPropertyForSale(uint _propertyId) {\n        require(IndexOf(_propertyId) >= 0);\n        require(msg.value == properties[_propertyId].price);\n        _;\n    }\n\n    event newSale(uint propertyId);\n    event deletedSale(uint propertyId);\n\n    uint[] public marketPlace;\n\n    function addProperty(uint propertyId) public onlyOwnerOf(propertyId) {\n        marketPlace.push(propertyId);\n        emit newSale(propertyId);\n    }\n\n    function isForSale(uint propertyId) public view returns (bool _isForSale) {\n        return IndexOf(propertyId) >= 0;\n    }\n\n    function getMarketPlace() public view returns (uint[] memory _marketPlace) {\n        return marketPlace;\n    }\n\n    function removeProperty(uint propertyId) public onlyOwnerOf(propertyId) {\n        int index = IndexOf(propertyId);\n        if (index >= 0) {\n            emit deletedSale(uint(propertyId));\n            delete marketPlace[uint256(index)];\n        }\n    }\n\n    function transaction(uint256 _tokenId) public payable onlyPropertyForSale(_tokenId) {\n        address payable _from = payable(propertyToOwner[_tokenId]);\n        _from.transfer(msg.value);\n        ownerPropertyCount[_from] = ownerPropertyCount[_from].sub(1);\n        ownerPropertyCount[msg.sender] = ownerPropertyCount[msg.sender].add(1);\n        propertyToOwner[_tokenId] = msg.sender;\n        removeProperty(_tokenId);\n    }\n\n    function IndexOf(uint value) private view returns(int) {\n        for(uint index = 0; index < marketPlace.length; index++) {\n            if (marketPlace[index] == value) {\n                return int(index);\n            }\n        }\n        return -1;\n    }\n}\n",
  "sourcePath": "/home/shengael/Documents/__esgi/2020_2021/blockchain/BLAPimmo/contracts/Marketplace.sol",
  "compiler": {
    "name": "solc",
    "version": "0.8.0+commit.c7dfd78e.Emscripten.clang"
  },
  "schemaVersion": "3.3.3",
  "updatedAt": "2021-01-16T22:11:46.985Z",
  "devdoc": {
    "kind": "dev",
    "methods": {
      "ownable()": {
        "details": "The Ownable constructor sets the original `owner` of the contract to the sender account."
      },
      "transferOwnership(address)": {
        "details": "Allows the current owner to transfer control of the contract to a newOwner.",
        "params": {
          "newOwner": "The address to transfer ownership to."
        }
      }
    },
    "version": 1
  },
  "userdoc": {
    "kind": "user",
    "methods": {},
    "version": 1
  }
}