{
  "contractName": "Marketplace",
  "abi": [
    {
      "anonymous": false,
      "inputs": [
        {
          "indexed": true,
          "internalType": "address",
          "name": "previousOwner",
          "type": "address"
        },
        {
          "indexed": true,
          "internalType": "address",
          "name": "newOwner",
          "type": "address"
        }
      ],
      "name": "OwnershipTransferred",
      "type": "event"
    },
    {
      "anonymous": false,
      "inputs": [
        {
          "indexed": false,
          "internalType": "uint256",
          "name": "propertyId",
          "type": "uint256"
        }
      ],
      "name": "deletedSale",
      "type": "event"
    },
    {
      "anonymous": false,
      "inputs": [
        {
          "indexed": false,
          "internalType": "uint256",
          "name": "propertyId",
          "type": "uint256"
        }
      ],
      "name": "newSale",
      "type": "event"
    },
    {
      "inputs": [
        {
          "internalType": "uint32",
          "name": "price",
          "type": "uint32"
        },
        {
          "internalType": "uint16",
          "name": "surface",
          "type": "uint16"
        },
        {
          "internalType": "bytes32",
          "name": "name",
          "type": "bytes32"
        },
        {
          "internalType": "bytes32",
          "name": "addr",
          "type": "bytes32"
        },
        {
          "internalType": "string",
          "name": "description",
          "type": "string"
        },
        {
          "internalType": "bytes32",
          "name": "dateUtc",
          "type": "bytes32"
        }
      ],
      "name": "createProperty",
      "outputs": [],
      "stateMutability": "nonpayable",
      "type": "function"
    },
    {
      "inputs": [],
      "name": "getPropertiesByOwner",
      "outputs": [
        {
          "internalType": "uint256[]",
          "name": "_properties",
          "type": "uint256[]"
        }
      ],
      "stateMutability": "view",
      "type": "function"
    },
    {
      "inputs": [
        {
          "internalType": "uint256",
          "name": "propertyId",
          "type": "uint256"
        }
      ],
      "name": "getProperty",
      "outputs": [
        {
          "components": [
            {
              "internalType": "uint32",
              "name": "price",
              "type": "uint32"
            },
            {
              "internalType": "uint16",
              "name": "surface",
              "type": "uint16"
            },
            {
              "internalType": "bytes32",
              "name": "addr",
              "type": "bytes32"
            },
            {
              "internalType": "bytes32",
              "name": "name",
              "type": "bytes32"
            },
            {
              "internalType": "string",
              "name": "description",
              "type": "string"
            },
            {
              "internalType": "bytes32",
              "name": "dateUtc",
              "type": "bytes32"
            }
          ],
          "internalType": "struct PropertyFactory.Property",
          "name": "_property",
          "type": "tuple"
        }
      ],
      "stateMutability": "view",
      "type": "function"
    },
    {
      "inputs": [
        {
          "internalType": "uint256",
          "name": "",
          "type": "uint256"
        }
      ],
      "name": "marketPlace",
      "outputs": [
        {
          "internalType": "uint256",
          "name": "",
          "type": "uint256"
        }
      ],
      "stateMutability": "view",
      "type": "function"
    },
    {
      "inputs": [],
      "name": "ownable",
      "outputs": [],
      "stateMutability": "nonpayable",
      "type": "function"
    },
    {
      "inputs": [],
      "name": "owner",
      "outputs": [
        {
          "internalType": "address",
          "name": "",
          "type": "address"
        }
      ],
      "stateMutability": "view",
      "type": "function"
    },
    {
      "inputs": [
        {
          "internalType": "address",
          "name": "",
          "type": "address"
        },
        {
          "internalType": "uint256",
          "name": "",
          "type": "uint256"
        }
      ],
      "name": "ownerToProperties",
      "outputs": [
        {
          "internalType": "uint256",
          "name": "",
          "type": "uint256"
        }
      ],
      "stateMutability": "view",
      "type": "function"
    },
    {
      "inputs": [
        {
          "internalType": "uint256",
          "name": "",
          "type": "uint256"
        }
      ],
      "name": "properties",
      "outputs": [
        {
          "internalType": "uint32",
          "name": "price",
          "type": "uint32"
        },
        {
          "internalType": "uint16",
          "name": "surface",
          "type": "uint16"
        },
        {
          "internalType": "bytes32",
          "name": "addr",
          "type": "bytes32"
        },
        {
          "internalType": "bytes32",
          "name": "name",
          "type": "bytes32"
        },
        {
          "internalType": "string",
          "name": "description",
          "type": "string"
        },
        {
          "internalType": "bytes32",
          "name": "dateUtc",
          "type": "bytes32"
        }
      ],
      "stateMutability": "view",
      "type": "function"
    },
    {
      "inputs": [
        {
          "internalType": "uint256",
          "name": "",
          "type": "uint256"
        }
      ],
      "name": "propertyToOwner",
      "outputs": [
        {
          "internalType": "address",
          "name": "",
          "type": "address"
        }
      ],
      "stateMutability": "view",
      "type": "function"
    },
    {
      "inputs": [
        {
          "internalType": "address",
          "name": "newOwner",
          "type": "address"
        }
      ],
      "name": "transferOwnership",
      "outputs": [],
      "stateMutability": "nonpayable",
      "type": "function"
    },
    {
      "inputs": [
        {
          "internalType": "uint256",
          "name": "propertyId",
          "type": "uint256"
        }
      ],
      "name": "addProperty",
      "outputs": [],
      "stateMutability": "nonpayable",
      "type": "function"
    },
    {
      "inputs": [
        {
          "internalType": "uint256",
          "name": "propertyId",
          "type": "uint256"
        }
      ],
      "name": "isForSale",
      "outputs": [
        {
          "internalType": "bool",
          "name": "_isForSale",
          "type": "bool"
        }
      ],
      "stateMutability": "view",
      "type": "function"
    },
    {
      "inputs": [],
      "name": "getMarketPlace",
      "outputs": [
        {
          "internalType": "uint256[]",
          "name": "_marketPlace",
          "type": "uint256[]"
        }
      ],
      "stateMutability": "view",
      "type": "function"
    },
    {
      "inputs": [
        {
          "internalType": "uint256",
          "name": "propertyId",
          "type": "uint256"
        }
      ],
      "name": "removePropertyFromMarketPlace",
      "outputs": [],
      "stateMutability": "nonpayable",
      "type": "function"
    },
    {
      "inputs": [
        {
          "internalType": "uint256",
          "name": "_tokenId",
          "type": "uint256"
        }
      ],
      "name": "transaction",
      "outputs": [],
      "stateMutability": "payable",
      "type": "function"
    }
  ],
  "bytecode": "0x608060405234801561001057600080fd5b50611e0d806100206000396000f3fe6080604052600436106100e85760003560e01c806364d00c451161008a578063e797888e11610059578063e797888e146102d3578063f2fde38b14610310578063f36b331f14610339578063f7b1080814610376576100e8565b806364d00c45146102295780638546d002146102545780638da5cb5b14610291578063b38854be146102bc576100e8565b8063267982e8116100c6578063267982e81461017e5780632734e146146101a757806332665ffb146101d057806346bd08411461020d576100e8565b806308943727146100ed5780630b56e383146101165780631eba13c114610153575b600080fd5b3480156100f957600080fd5b50610114600480360381019061010f919061167a565b6103b8565b005b34801561012257600080fd5b5061013d6004803603810190610138919061167a565b6104be565b60405161014a919061194b565b60405180910390f35b34801561015f57600080fd5b506101686104f1565b6040516101759190611966565b60405180910390f35b34801561018a57600080fd5b506101a560048036038101906101a0919061167a565b610586565b005b3480156101b357600080fd5b506101ce60048036038101906101c991906116a3565b610656565b005b3480156101dc57600080fd5b506101f760048036038101906101f2919061167a565b6108ab565b60405161020491906119a3565b60405180910390f35b6102276004803603810190610222919061167a565b610a14565b005b34801561023557600080fd5b5061023e610d79565b60405161024b9190611966565b60405180910390f35b34801561026057600080fd5b5061027b6004803603810190610276919061167a565b610dd1565b6040516102889190611988565b60405180910390f35b34801561029d57600080fd5b506102a6610de6565b6040516102b3919061194b565b60405180910390f35b3480156102c857600080fd5b506102d1610e0a565b005b3480156102df57600080fd5b506102fa60048036038101906102f5919061163e565b610e4c565b60405161030791906119c5565b60405180910390f35b34801561031c57600080fd5b5061033760048036038101906103329190611615565b610e7d565b005b34801561034557600080fd5b50610360600480360381019061035b919061167a565b610fcc565b60405161036d91906119c5565b60405180910390f35b34801561038257600080fd5b5061039d6004803603810190610398919061167a565b610ff0565b6040516103af969594939291906119e0565b60405180910390f35b806002600082815260200190815260200160002060009054906101000a900473ffffffffffffffffffffffffffffffffffffffff1673ffffffffffffffffffffffffffffffffffffffff163373ffffffffffffffffffffffffffffffffffffffff161461042457600080fd5b600061042f836110e2565b9050600081126104b9577f47b41e33b975d7fb03e5c7ee8fa8e3f9caff8600d16df3308d77244f0913254b8360405161046891906119c5565b60405180910390a1600581815481106104aa577f4e487b7100000000000000000000000000000000000000000000000000000000600052603260045260246000fd5b90600052602060002001600090555b505050565b60026020528060005260406000206000915054906101000a900473ffffffffffffffffffffffffffffffffffffffff1681565b6060600360003373ffffffffffffffffffffffffffffffffffffffff1673ffffffffffffffffffffffffffffffffffffffff16815260200190815260200160002080548060200260200160405190810160405280929190818152602001828054801561057c57602002820191906000526020600020905b815481526020019060010190808311610568575b5050505050905090565b806002600082815260200190815260200160002060009054906101000a900473ffffffffffffffffffffffffffffffffffffffff1673ffffffffffffffffffffffffffffffffffffffff163373ffffffffffffffffffffffffffffffffffffffff16146105f257600080fd5b60058290806001815401808255809150506001900390600052602060002001600090919091909150557f30edb07c99f8ac2382c54e90f4de0a2623f843077198d78f3e75465d5b61320b8260405161064a91906119c5565b60405180910390a15050565b60016040518060c001604052808863ffffffff1681526020018761ffff16815260200185815260200186815260200184815260200183815250908060018154018082558091505060019003906000526020600020906005020160009091909190915060008201518160000160006101000a81548163ffffffff021916908363ffffffff16021790555060208201518160000160046101000a81548161ffff021916908361ffff16021790555060408201518160010155606082015181600201556080820151816003019080519060200190610732929190611458565b5060a0820151816004015550506000600180805490506107529190611b0f565b9050336002600083815260200190815260200160002060006101000a81548173ffffffffffffffffffffffffffffffffffffffff021916908373ffffffffffffffffffffffffffffffffffffffff160217905550600360003373ffffffffffffffffffffffffffffffffffffffff1673ffffffffffffffffffffffffffffffffffffffff16815260200190815260200160002081908060018154018082558091505060019003906000526020600020016000909190919091505561085f6001600460003373ffffffffffffffffffffffffffffffffffffffff1673ffffffffffffffffffffffffffffffffffffffff1681526020019081526020016000205461118990919063ffffffff16565b600460003373ffffffffffffffffffffffffffffffffffffffff1673ffffffffffffffffffffffffffffffffffffffff1681526020019081526020016000208190555050505050505050565b6108b36114de565b81600180549050116108c457600080fd5b600182815481106108fe577f4e487b7100000000000000000000000000000000000000000000000000000000600052603260045260246000fd5b90600052602060002090600502016040518060c00160405290816000820160009054906101000a900463ffffffff1663ffffffff1663ffffffff1681526020016000820160049054906101000a900461ffff1661ffff1661ffff168152602001600182015481526020016002820154815260200160038201805461098190611c4b565b80601f01602080910402602001604051908101604052809291908181526020018280546109ad90611c4b565b80156109fa5780601f106109cf576101008083540402835291602001916109fa565b820191906000526020600020905b8154815290600101906020018083116109dd57829003601f168201915b505050505081526020016004820154815250509050919050565b806000610a20826110e2565b1215610a2b57600080fd5b60018181548110610a65577f4e487b7100000000000000000000000000000000000000000000000000000000600052603260045260246000fd5b906000526020600020906005020160000160009054906101000a900463ffffffff1663ffffffff163414610a9857600080fd5b60006002600084815260200190815260200160002060009054906101000a900473ffffffffffffffffffffffffffffffffffffffff1690508073ffffffffffffffffffffffffffffffffffffffff166108fc349081150290604051600060405180830381858888f19350505050158015610b16573d6000803e3d6000fd5b50610b9d6001600460006002600088815260200190815260200160002060009054906101000a900473ffffffffffffffffffffffffffffffffffffffff1673ffffffffffffffffffffffffffffffffffffffff1673ffffffffffffffffffffffffffffffffffffffff168152602001908152602001600020546111db90919063ffffffff16565b600460006002600087815260200190815260200160002060009054906101000a900473ffffffffffffffffffffffffffffffffffffffff1673ffffffffffffffffffffffffffffffffffffffff1673ffffffffffffffffffffffffffffffffffffffff16815260200190815260200160002081905550610c666001600460003373ffffffffffffffffffffffffffffffffffffffff1673ffffffffffffffffffffffffffffffffffffffff1681526020019081526020016000205461118990919063ffffffff16565b600460003373ffffffffffffffffffffffffffffffffffffffff1673ffffffffffffffffffffffffffffffffffffffff16815260200190815260200160002081905550336002600085815260200190815260200160002060006101000a81548173ffffffffffffffffffffffffffffffffffffffff021916908373ffffffffffffffffffffffffffffffffffffffff160217905550610d058382611228565b600360003373ffffffffffffffffffffffffffffffffffffffff1673ffffffffffffffffffffffffffffffffffffffff168152602001908152602001600020839080600181540180825580915050600190039060005260206000200160009091909190915055610d74836103b8565b505050565b60606005805480602002602001604051908101604052809291908181526020018280548015610dc757602002820191906000526020600020905b815481526020019060010190808311610db3575b5050505050905090565b600080610ddd836110e2565b12159050919050565b60008054906101000a900473ffffffffffffffffffffffffffffffffffffffff1681565b336000806101000a81548173ffffffffffffffffffffffffffffffffffffffff021916908373ffffffffffffffffffffffffffffffffffffffff160217905550565b60036020528160005260406000208181548110610e6857600080fd5b90600052602060002001600091509150505481565b60008054906101000a900473ffffffffffffffffffffffffffffffffffffffff1673ffffffffffffffffffffffffffffffffffffffff163373ffffffffffffffffffffffffffffffffffffffff1614610ed557600080fd5b600073ffffffffffffffffffffffffffffffffffffffff168173ffffffffffffffffffffffffffffffffffffffff161415610f0f57600080fd5b8073ffffffffffffffffffffffffffffffffffffffff1660008054906101000a900473ffffffffffffffffffffffffffffffffffffffff1673ffffffffffffffffffffffffffffffffffffffff167f8be0079c531659141344cd1fd0a4f28419497f9722a3daafe3b4186f6b6457e060405160405180910390a3806000806101000a81548173ffffffffffffffffffffffffffffffffffffffff021916908373ffffffffffffffffffffffffffffffffffffffff16021790555050565b60058181548110610fdc57600080fd5b906000526020600020016000915090505481565b6001818154811061100057600080fd5b90600052602060002090600502016000915090508060000160009054906101000a900463ffffffff16908060000160049054906101000a900461ffff169080600101549080600201549080600301805461105990611c4b565b80601f016020809104026020016040519081016040528092919081815260200182805461108590611c4b565b80156110d25780601f106110a7576101008083540402835291602001916110d2565b820191906000526020600020905b8154815290600101906020018083116110b557829003601f168201915b5050505050908060040154905086565b600080600090505b60058054905081101561115f578260058281548110611132577f4e487b7100000000000000000000000000000000000000000000000000000000600052603260045260246000fd5b9060005260206000200154141561114c5780915050611184565b808061115790611c7d565b9150506110ea565b507fffffffffffffffffffffffffffffffffffffffffffffffffffffffffffffffff90505b919050565b60008082846111989190611b0f565b9050838110156111d1577f4e487b7100000000000000000000000000000000000000000000000000000000600052600160045260246000fd5b8091505092915050565b600082821115611214577f4e487b7100000000000000000000000000000000000000000000000000000000600052600160045260246000fd5b81836112209190611b65565b905092915050565b816002600082815260200190815260200160002060009054906101000a900473ffffffffffffffffffffffffffffffffffffffff1673ffffffffffffffffffffffffffffffffffffffff163373ffffffffffffffffffffffffffffffffffffffff161461129457600080fd5b60006112a08484611336565b90506000811261133057600360008473ffffffffffffffffffffffffffffffffffffffff1673ffffffffffffffffffffffffffffffffffffffff1681526020019081526020016000208181548110611321577f4e487b7100000000000000000000000000000000000000000000000000000000600052603260045260246000fd5b90600052602060002001600090555b50505050565b600080600090505b600360008473ffffffffffffffffffffffffffffffffffffffff1673ffffffffffffffffffffffffffffffffffffffff1681526020019081526020016000208054905081101561142d5783600360008573ffffffffffffffffffffffffffffffffffffffff1673ffffffffffffffffffffffffffffffffffffffff1681526020019081526020016000208281548110611400577f4e487b7100000000000000000000000000000000000000000000000000000000600052603260045260246000fd5b9060005260206000200154141561141a5780915050611452565b808061142590611c7d565b91505061133e565b507fffffffffffffffffffffffffffffffffffffffffffffffffffffffffffffffff90505b92915050565b82805461146490611c4b565b90600052602060002090601f01602090048101928261148657600085556114cd565b82601f1061149f57805160ff19168380011785556114cd565b828001600101855582156114cd579182015b828111156114cc5782518255916020019190600101906114b1565b5b5090506114da9190611527565b5090565b6040518060c00160405280600063ffffffff168152602001600061ffff168152602001600080191681526020016000801916815260200160608152602001600080191681525090565b5b80821115611540576000816000905550600101611528565b5090565b600061155761155284611a79565b611a48565b90508281526020810184848401111561156f57600080fd5b61157a848285611c09565b509392505050565b60008135905061159181611d64565b92915050565b6000813590506115a681611d7b565b92915050565b600082601f8301126115bd57600080fd5b81356115cd848260208601611544565b91505092915050565b6000813590506115e581611d92565b92915050565b6000813590506115fa81611da9565b92915050565b60008135905061160f81611dc0565b92915050565b60006020828403121561162757600080fd5b600061163584828501611582565b91505092915050565b6000806040838503121561165157600080fd5b600061165f85828601611582565b9250506020611670858286016115eb565b9150509250929050565b60006020828403121561168c57600080fd5b600061169a848285016115eb565b91505092915050565b60008060008060008060c087890312156116bc57600080fd5b60006116ca89828a01611600565b96505060206116db89828a016115d6565b95505060406116ec89828a01611597565b94505060606116fd89828a01611597565b935050608087013567ffffffffffffffff81111561171a57600080fd5b61172689828a016115ac565b92505060a061173789828a01611597565b9150509295509295509295565b6000611750838361190f565b60208301905092915050565b61176581611b99565b82525050565b600061177682611ab9565b6117808185611adc565b935061178b83611aa9565b8060005b838110156117bc5781516117a38882611744565b97506117ae83611acf565b92505060018101905061178f565b5085935050505092915050565b6117d281611bab565b82525050565b6117e181611bb7565b82525050565b6117f081611bb7565b82525050565b600061180182611ac4565b61180b8185611aed565b935061181b818560208601611c18565b61182481611d53565b840191505092915050565b600061183a82611ac4565b6118448185611afe565b9350611854818560208601611c18565b61185d81611d53565b840191505092915050565b600060c083016000830151611880600086018261192d565b50602083015161189360208601826118f1565b5060408301516118a660408601826117d8565b5060608301516118b960608601826117d8565b50608083015184820360808601526118d182826117f6565b91505060a08301516118e660a08601826117d8565b508091505092915050565b6118fa81611bc1565b82525050565b61190981611bc1565b82525050565b61191881611bef565b82525050565b61192781611bef565b82525050565b61193681611bf9565b82525050565b61194581611bf9565b82525050565b6000602082019050611960600083018461175c565b92915050565b60006020820190508181036000830152611980818461176b565b905092915050565b600060208201905061199d60008301846117c9565b92915050565b600060208201905081810360008301526119bd8184611868565b905092915050565b60006020820190506119da600083018461191e565b92915050565b600060c0820190506119f5600083018961193c565b611a026020830188611900565b611a0f60408301876117e7565b611a1c60608301866117e7565b8181036080830152611a2e818561182f565b9050611a3d60a08301846117e7565b979650505050505050565b6000604051905081810181811067ffffffffffffffff82111715611a6f57611a6e611d24565b5b8060405250919050565b600067ffffffffffffffff821115611a9457611a93611d24565b5b601f19601f8301169050602081019050919050565b6000819050602082019050919050565b600081519050919050565b600081519050919050565b6000602082019050919050565b600082825260208201905092915050565b600082825260208201905092915050565b600082825260208201905092915050565b6000611b1a82611bef565b9150611b2583611bef565b9250827fffffffffffffffffffffffffffffffffffffffffffffffffffffffffffffffff03821115611b5a57611b59611cc6565b5b828201905092915050565b6000611b7082611bef565b9150611b7b83611bef565b925082821015611b8e57611b8d611cc6565b5b828203905092915050565b6000611ba482611bcf565b9050919050565b60008115159050919050565b6000819050919050565b600061ffff82169050919050565b600073ffffffffffffffffffffffffffffffffffffffff82169050919050565b6000819050919050565b600063ffffffff82169050919050565b82818337600083830152505050565b60005b83811015611c36578082015181840152602081019050611c1b565b83811115611c45576000848401525b50505050565b60006002820490506001821680611c6357607f821691505b60208210811415611c7757611c76611cf5565b5b50919050565b6000611c8882611bef565b91507fffffffffffffffffffffffffffffffffffffffffffffffffffffffffffffffff821415611cbb57611cba611cc6565b5b600182019050919050565b7f4e487b7100000000000000000000000000000000000000000000000000000000600052601160045260246000fd5b7f4e487b7100000000000000000000000000000000000000000000000000000000600052602260045260246000fd5b7f4e487b7100000000000000000000000000000000000000000000000000000000600052604160045260246000fd5b6000601f19601f8301169050919050565b611d6d81611b99565b8114611d7857600080fd5b50565b611d8481611bb7565b8114611d8f57600080fd5b50565b611d9b81611bc1565b8114611da657600080fd5b50565b611db281611bef565b8114611dbd57600080fd5b50565b611dc981611bf9565b8114611dd457600080fd5b5056fea26469706673582212206188beabbaf2ab67d4d0ccea4c701e7b18b79e4fcf904bca54a9087ab482ea8864736f6c63430008000033",
  "immutableReferences": {},
  "source": "// SPDX-License-Identifier: MIT\npragma solidity = 0.8.0;\n\nimport \"./PropertyFactory.sol\";\n\n\ncontract Marketplace is PropertyFactory {\n    using SafeMath for uint256;\n\n    modifier onlyPropertyForSale(uint _propertyId) {\n        require(IndexOfMarketPlace(_propertyId) >= 0);\n        require(msg.value == properties[_propertyId].price);\n        _;\n    }\n\n    event newSale(uint propertyId);\n    event deletedSale(uint propertyId);\n\n    uint[] public marketPlace;\n\n    function addProperty(uint propertyId) public onlyOwnerOf(propertyId) {\n        marketPlace.push(propertyId);\n        emit newSale(propertyId);\n    }\n\n    function isForSale(uint propertyId) public view returns (bool _isForSale) {\n        return IndexOfMarketPlace(propertyId) >= 0;\n    }\n\n    function getMarketPlace() public view returns (uint[] memory _marketPlace) {\n        return marketPlace;\n    }\n\n    function removePropertyFromMarketPlace(uint propertyId) public onlyOwnerOf(propertyId) {\n        int index = IndexOfMarketPlace(propertyId);\n        if (index >= 0) {\n            emit deletedSale(uint(propertyId));\n            delete marketPlace[uint256(index)];\n        }\n    }\n\n    function transaction(uint256 _tokenId) public payable onlyPropertyForSale(_tokenId) {\n        address payable _from = payable(propertyToOwner[_tokenId]);\n        _from.transfer(msg.value);\n        ownerPropertyCount[propertyToOwner[_tokenId]] = ownerPropertyCount[propertyToOwner[_tokenId]].sub(1);\n        ownerPropertyCount[msg.sender] = ownerPropertyCount[msg.sender].add(1);\n        propertyToOwner[_tokenId] = msg.sender;\n        removePropertyFromOwner(_tokenId, _from);\n        ownerToProperties[msg.sender].push(_tokenId);\n        removePropertyFromMarketPlace(_tokenId);\n    }\n\n    function removePropertyFromOwner(uint propertyId, address owner) private onlyOwnerOf(propertyId) {\n        int index = IndexOfOwnerProperties(propertyId, owner);\n        if (index >= 0) {\n            delete ownerToProperties[owner][uint256(index)];\n        }\n    }\n\n    function IndexOfOwnerProperties(uint value, address owner) private view returns(int) {\n        for(uint index = 0; index < ownerToProperties[owner].length; index++) {\n            if (ownerToProperties[owner][index] == value) {\n                return int(index);\n            }\n        }\n        return -1;\n    }\n\n    function IndexOfMarketPlace(uint value) private view returns(int) {\n        for(uint index = 0; index < marketPlace.length; index++) {\n            if (marketPlace[index] == value) {\n                return int(index);\n            }\n        }\n        return -1;\n    }\n}\n",
  "sourcePath": "/home/shengael/Documents/__esgi/2020_2021/blockchain/BLAPimmo/contracts/Marketplace.sol",
  "compiler": {
    "name": "solc",
    "version": "0.8.0+commit.c7dfd78e.Emscripten.clang"
  },
  "schemaVersion": "3.3.3",
  "updatedAt": "2021-01-18T22:17:28.525Z",
  "devdoc": {
    "kind": "dev",
    "methods": {
      "ownable()": {
        "details": "The Ownable constructor sets the original `owner` of the contract to the sender account."
      },
      "transferOwnership(address)": {
        "details": "Allows the current owner to transfer control of the contract to a newOwner.",
        "params": {
          "newOwner": "The address to transfer ownership to."
        }
      }
    },
    "version": 1
  },
  "userdoc": {
    "kind": "user",
    "methods": {},
    "version": 1
  }
}