{
  "contractName": "PropertyOwnership",
  "abi": [
    {
      "anonymous": false,
      "inputs": [
        {
          "indexed": true,
          "internalType": "address",
          "name": "_owner",
          "type": "address"
        },
        {
          "indexed": true,
          "internalType": "address",
          "name": "_approved",
          "type": "address"
        },
        {
          "indexed": false,
          "internalType": "uint256",
          "name": "_tokenId",
          "type": "uint256"
        }
      ],
      "name": "Approval",
      "type": "event"
    },
    {
      "anonymous": false,
      "inputs": [
        {
          "indexed": true,
          "internalType": "address",
          "name": "previousOwner",
          "type": "address"
        },
        {
          "indexed": true,
          "internalType": "address",
          "name": "newOwner",
          "type": "address"
        }
      ],
      "name": "OwnershipTransferred",
      "type": "event"
    },
    {
      "anonymous": false,
      "inputs": [
        {
          "indexed": true,
          "internalType": "address",
          "name": "_from",
          "type": "address"
        },
        {
          "indexed": true,
          "internalType": "address",
          "name": "_to",
          "type": "address"
        },
        {
          "indexed": false,
          "internalType": "uint256",
          "name": "_tokenId",
          "type": "uint256"
        }
      ],
      "name": "Transfer",
      "type": "event"
    },
    {
      "anonymous": false,
      "inputs": [
        {
          "indexed": false,
          "internalType": "uint256",
          "name": "propertyId",
          "type": "uint256"
        }
      ],
      "name": "deletedSale",
      "type": "event"
    },
    {
      "anonymous": false,
      "inputs": [
        {
          "indexed": false,
          "internalType": "uint256",
          "name": "propertyId",
          "type": "uint256"
        }
      ],
      "name": "newSale",
      "type": "event"
    },
    {
      "inputs": [
        {
          "internalType": "uint256",
          "name": "propertyId",
          "type": "uint256"
        }
      ],
      "name": "addProperty",
      "outputs": [],
      "stateMutability": "nonpayable",
      "type": "function"
    },
    {
      "inputs": [
        {
          "internalType": "uint32",
          "name": "price",
          "type": "uint32"
        },
        {
          "internalType": "uint16",
          "name": "surface",
          "type": "uint16"
        },
        {
          "internalType": "bytes32",
          "name": "name",
          "type": "bytes32"
        },
        {
          "internalType": "bytes32",
          "name": "addr",
          "type": "bytes32"
        },
        {
          "internalType": "string",
          "name": "description",
          "type": "string"
        },
        {
          "internalType": "bytes32",
          "name": "dateUtc",
          "type": "bytes32"
        }
      ],
      "name": "createProperty",
      "outputs": [],
      "stateMutability": "nonpayable",
      "type": "function"
    },
    {
      "inputs": [],
      "name": "getMarketPlace",
      "outputs": [
        {
          "internalType": "uint256[]",
          "name": "_marketPlace",
          "type": "uint256[]"
        }
      ],
      "stateMutability": "view",
      "type": "function",
      "constant": true
    },
    {
      "inputs": [],
      "name": "getPropertiesByOwner",
      "outputs": [
        {
          "internalType": "uint256[]",
          "name": "_properties",
          "type": "uint256[]"
        }
      ],
      "stateMutability": "view",
      "type": "function",
      "constant": true
    },
    {
      "inputs": [
        {
          "internalType": "uint256",
          "name": "propertyId",
          "type": "uint256"
        }
      ],
      "name": "getProperty",
      "outputs": [
        {
          "components": [
            {
              "internalType": "uint32",
              "name": "price",
              "type": "uint32"
            },
            {
              "internalType": "uint16",
              "name": "surface",
              "type": "uint16"
            },
            {
              "internalType": "bytes32",
              "name": "addr",
              "type": "bytes32"
            },
            {
              "internalType": "bytes32",
              "name": "name",
              "type": "bytes32"
            },
            {
              "internalType": "string",
              "name": "description",
              "type": "string"
            },
            {
              "internalType": "bytes32",
              "name": "dateUtc",
              "type": "bytes32"
            }
          ],
          "internalType": "struct PropertyFactory.Property",
          "name": "_property",
          "type": "tuple"
        }
      ],
      "stateMutability": "view",
      "type": "function",
      "constant": true
    },
    {
      "inputs": [
        {
          "internalType": "uint256",
          "name": "propertyId",
          "type": "uint256"
        }
      ],
      "name": "isForSale",
      "outputs": [
        {
          "internalType": "bool",
          "name": "_isForSale",
          "type": "bool"
        }
      ],
      "stateMutability": "view",
      "type": "function",
      "constant": true
    },
    {
      "inputs": [
        {
          "internalType": "uint256",
          "name": "",
          "type": "uint256"
        }
      ],
      "name": "marketPlace",
      "outputs": [
        {
          "internalType": "uint256",
          "name": "",
          "type": "uint256"
        }
      ],
      "stateMutability": "view",
      "type": "function",
      "constant": true
    },
    {
      "inputs": [],
      "name": "ownable",
      "outputs": [],
      "stateMutability": "nonpayable",
      "type": "function"
    },
    {
      "inputs": [],
      "name": "owner",
      "outputs": [
        {
          "internalType": "address",
          "name": "",
          "type": "address"
        }
      ],
      "stateMutability": "view",
      "type": "function",
      "constant": true
    },
    {
      "inputs": [
        {
          "internalType": "address",
          "name": "",
          "type": "address"
        },
        {
          "internalType": "uint256",
          "name": "",
          "type": "uint256"
        }
      ],
      "name": "ownerToProperties",
      "outputs": [
        {
          "internalType": "uint256",
          "name": "",
          "type": "uint256"
        }
      ],
      "stateMutability": "view",
      "type": "function",
      "constant": true
    },
    {
      "inputs": [
        {
          "internalType": "uint256",
          "name": "",
          "type": "uint256"
        }
      ],
      "name": "properties",
      "outputs": [
        {
          "internalType": "uint32",
          "name": "price",
          "type": "uint32"
        },
        {
          "internalType": "uint16",
          "name": "surface",
          "type": "uint16"
        },
        {
          "internalType": "bytes32",
          "name": "addr",
          "type": "bytes32"
        },
        {
          "internalType": "bytes32",
          "name": "name",
          "type": "bytes32"
        },
        {
          "internalType": "string",
          "name": "description",
          "type": "string"
        },
        {
          "internalType": "bytes32",
          "name": "dateUtc",
          "type": "bytes32"
        }
      ],
      "stateMutability": "view",
      "type": "function",
      "constant": true
    },
    {
      "inputs": [
        {
          "internalType": "uint256",
          "name": "",
          "type": "uint256"
        }
      ],
      "name": "propertyToOwner",
      "outputs": [
        {
          "internalType": "address",
          "name": "",
          "type": "address"
        }
      ],
      "stateMutability": "view",
      "type": "function",
      "constant": true
    },
    {
      "inputs": [
        {
          "internalType": "uint256",
          "name": "propertyId",
          "type": "uint256"
        }
      ],
      "name": "removePropertyFromMarketPlace",
      "outputs": [],
      "stateMutability": "nonpayable",
      "type": "function"
    },
    {
      "inputs": [
        {
          "internalType": "uint256",
          "name": "_tokenId",
          "type": "uint256"
        }
      ],
      "name": "transaction",
      "outputs": [],
      "stateMutability": "payable",
      "type": "function",
      "payable": true
    },
    {
      "inputs": [
        {
          "internalType": "address",
          "name": "newOwner",
          "type": "address"
        }
      ],
      "name": "transferOwnership",
      "outputs": [],
      "stateMutability": "nonpayable",
      "type": "function"
    },
    {
      "inputs": [
        {
          "internalType": "address",
          "name": "_owner",
          "type": "address"
        }
      ],
      "name": "balanceOf",
      "outputs": [
        {
          "internalType": "uint256",
          "name": "_balance",
          "type": "uint256"
        }
      ],
      "stateMutability": "view",
      "type": "function",
      "constant": true
    },
    {
      "inputs": [
        {
          "internalType": "uint256",
          "name": "_tokenId",
          "type": "uint256"
        }
      ],
      "name": "ownerOf",
      "outputs": [
        {
          "internalType": "address",
          "name": "_owner",
          "type": "address"
        }
      ],
      "stateMutability": "view",
      "type": "function",
      "constant": true
    },
    {
      "inputs": [
        {
          "internalType": "address",
          "name": "_to",
          "type": "address"
        },
        {
          "internalType": "uint256",
          "name": "_tokenId",
          "type": "uint256"
        }
      ],
      "name": "transfer",
      "outputs": [],
      "stateMutability": "nonpayable",
      "type": "function"
    },
    {
      "inputs": [
        {
          "internalType": "address",
          "name": "_to",
          "type": "address"
        },
        {
          "internalType": "uint256",
          "name": "_tokenId",
          "type": "uint256"
        }
      ],
      "name": "approve",
      "outputs": [],
      "stateMutability": "nonpayable",
      "type": "function"
    },
    {
      "inputs": [
        {
          "internalType": "uint256",
          "name": "_tokenId",
          "type": "uint256"
        }
      ],
      "name": "takeOwnership",
      "outputs": [],
      "stateMutability": "nonpayable",
      "type": "function"
    }
  ],
  "bytecode": "0x608060405234801561001057600080fd5b506123a7806100206000396000f3fe60806040526004361061011f5760003560e01c806370a08231116100a0578063b38854be11610064578063b38854be146103e8578063e797888e146103ff578063f2fde38b1461043c578063f36b331f14610465578063f7b10808146104a25761011f565b806370a08231146102f15780638546d0021461032e5780638da5cb5b1461036b578063a9059cbb14610396578063b2e6ceeb146103bf5761011f565b80632734e146116100e75780632734e1461461020757806332665ffb1461023057806346bd08411461026d5780636352211e1461028957806364d00c45146102c65761011f565b80630894372714610124578063095ea7b31461014d5780630b56e383146101765780631eba13c1146101b3578063267982e8146101de575b600080fd5b34801561013057600080fd5b5061014b60048036038101906101469190611c14565b6104e4565b005b34801561015957600080fd5b50610174600480360381019061016f9190611bd8565b61068f565b005b34801561018257600080fd5b5061019d60048036038101906101989190611c14565b6107b7565b6040516101aa9190611ee5565b60405180910390f35b3480156101bf57600080fd5b506101c86107ea565b6040516101d59190611f00565b60405180910390f35b3480156101ea57600080fd5b5061020560048036038101906102009190611c14565b61087f565b005b34801561021357600080fd5b5061022e60048036038101906102299190611c3d565b61094f565b005b34801561023c57600080fd5b5061025760048036038101906102529190611c14565b610b03565b6040516102649190611f3d565b60405180910390f35b61028760048036038101906102829190611c14565b610c6c565b005b34801561029557600080fd5b506102b060048036038101906102ab9190611c14565b610dd2565b6040516102bd9190611ee5565b60405180910390f35b3480156102d257600080fd5b506102db610e0f565b6040516102e89190611f00565b60405180910390f35b3480156102fd57600080fd5b5061031860048036038101906103139190611baf565b610e67565b6040516103259190611f5f565b60405180910390f35b34801561033a57600080fd5b5061035560048036038101906103509190611c14565b610eb0565b6040516103629190611f22565b60405180910390f35b34801561037757600080fd5b50610380610ec5565b60405161038d9190611ee5565b60405180910390f35b3480156103a257600080fd5b506103bd60048036038101906103b89190611bd8565b610ee9565b005b3480156103cb57600080fd5b506103e660048036038101906103e19190611c14565b610f65565b005b3480156103f457600080fd5b506103fd610fec565b005b34801561040b57600080fd5b5061042660048036038101906104219190611bd8565b61102e565b6040516104339190611f5f565b60405180910390f35b34801561044857600080fd5b50610463600480360381019061045e9190611baf565b61105f565b005b34801561047157600080fd5b5061048c60048036038101906104879190611c14565b6111ae565b6040516104999190611f5f565b60405180910390f35b3480156104ae57600080fd5b506104c960048036038101906104c49190611c14565b6111d2565b6040516104db96959493929190611f7a565b60405180910390f35b806002600082815260200190815260200160002060009054906101000a900473ffffffffffffffffffffffffffffffffffffffff1673ffffffffffffffffffffffffffffffffffffffff163373ffffffffffffffffffffffffffffffffffffffff161461055057600080fd5b600061055b836112c4565b9050600580549050811061056f575061068b565b60008190505b600160058054905061058791906120ff565b81101561063a57600560018261059d91906120a9565b815481106105d4577f4e487b7100000000000000000000000000000000000000000000000000000000600052603260045260246000fd5b906000526020600020015460058281548110610619577f4e487b7100000000000000000000000000000000000000000000000000000000600052603260045260246000fd5b9060005260206000200181905550808061063290612217565b915050610575565b506005805480610673577f4e487b7100000000000000000000000000000000000000000000000000000000600052603160045260246000fd5b60019003818190600052602060002001600090559055505b5050565b806002600082815260200190815260200160002060009054906101000a900473ffffffffffffffffffffffffffffffffffffffff1673ffffffffffffffffffffffffffffffffffffffff163373ffffffffffffffffffffffffffffffffffffffff16146106fb57600080fd5b826006600084815260200190815260200160002060006101000a81548173ffffffffffffffffffffffffffffffffffffffff021916908373ffffffffffffffffffffffffffffffffffffffff1602179055508273ffffffffffffffffffffffffffffffffffffffff163373ffffffffffffffffffffffffffffffffffffffff167f8c5be1e5ebec7d5bd14f71427d1e84f3dd0314c0f7b2291e5b200ac8c7c3b925846040516107aa9190611f5f565b60405180910390a3505050565b60026020528060005260406000206000915054906101000a900473ffffffffffffffffffffffffffffffffffffffff1681565b6060600360003373ffffffffffffffffffffffffffffffffffffffff1673ffffffffffffffffffffffffffffffffffffffff16815260200190815260200160002080548060200260200160405190810160405280929190818152602001828054801561087557602002820191906000526020600020905b815481526020019060010190808311610861575b5050505050905090565b806002600082815260200190815260200160002060009054906101000a900473ffffffffffffffffffffffffffffffffffffffff1673ffffffffffffffffffffffffffffffffffffffff163373ffffffffffffffffffffffffffffffffffffffff16146108eb57600080fd5b60058290806001815401808255809150506001900390600052602060002001600090919091909150557f30edb07c99f8ac2382c54e90f4de0a2623f843077198d78f3e75465d5b61320b826040516109439190611f5f565b60405180910390a15050565b6000600180549050905060016040518060c001604052808963ffffffff1681526020018861ffff16815260200186815260200187815260200185815260200184815250908060018154018082558091505060019003906000526020600020906005020160009091909190915060008201518160000160006101000a81548163ffffffff021916908363ffffffff16021790555060208201518160000160046101000a81548161ffff021916908361ffff16021790555060408201518160010155606082015181600201556080820151816003019080519060200190610a359291906119f2565b5060a082015181600401555050336002600083815260200190815260200160002060006101000a81548173ffffffffffffffffffffffffffffffffffffffff021916908373ffffffffffffffffffffffffffffffffffffffff160217905550600360003373ffffffffffffffffffffffffffffffffffffffff1673ffffffffffffffffffffffffffffffffffffffff16815260200190815260200160002081908060018154018082558091505060019003906000526020600020016000909190919091505550505050505050565b610b0b611a78565b8160018054905011610b1c57600080fd5b60018281548110610b56577f4e487b7100000000000000000000000000000000000000000000000000000000600052603260045260246000fd5b90600052602060002090600502016040518060c00160405290816000820160009054906101000a900463ffffffff1663ffffffff1663ffffffff1681526020016000820160049054906101000a900461ffff1661ffff1661ffff1681526020016001820154815260200160028201548152602001600382018054610bd9906121e5565b80601f0160208091040260200160405190810160405280929190818152602001828054610c05906121e5565b8015610c525780601f10610c2757610100808354040283529160200191610c52565b820191906000526020600020905b815481529060010190602001808311610c3557829003601f168201915b505050505081526020016004820154815250509050919050565b806000610c78826112c4565b1215610c8357600080fd5b60006002600084815260200190815260200160002060009054906101000a900473ffffffffffffffffffffffffffffffffffffffff1690508073ffffffffffffffffffffffffffffffffffffffff166108fc349081150290604051600060405180830381858888f19350505050158015610d01573d6000803e3d6000fd5b50336002600085815260200190815260200160002060006101000a81548173ffffffffffffffffffffffffffffffffffffffff021916908373ffffffffffffffffffffffffffffffffffffffff160217905550610d5e838261136b565b600360003373ffffffffffffffffffffffffffffffffffffffff1673ffffffffffffffffffffffffffffffffffffffff168152602001908152602001600020839080600181540180825580915050600190039060005260206000200160009091909190915055610dcd836104e4565b505050565b60006002600083815260200190815260200160002060009054906101000a900473ffffffffffffffffffffffffffffffffffffffff169050919050565b60606005805480602002602001604051908101604052809291908181526020018280548015610e5d57602002820191906000526020600020905b815481526020019060010190808311610e49575b5050505050905090565b6000600460008373ffffffffffffffffffffffffffffffffffffffff1673ffffffffffffffffffffffffffffffffffffffff168152602001908152602001600020549050919050565b600080610ebc836112c4565b12159050919050565b60008054906101000a900473ffffffffffffffffffffffffffffffffffffffff1681565b806002600082815260200190815260200160002060009054906101000a900473ffffffffffffffffffffffffffffffffffffffff1673ffffffffffffffffffffffffffffffffffffffff163373ffffffffffffffffffffffffffffffffffffffff1614610f5557600080fd5b610f60338484611649565b505050565b3373ffffffffffffffffffffffffffffffffffffffff166006600083815260200190815260200160002060009054906101000a900473ffffffffffffffffffffffffffffffffffffffff1673ffffffffffffffffffffffffffffffffffffffff1614610fd057600080fd5b6000610fdb82610dd2565b9050610fe8813384611649565b5050565b336000806101000a81548173ffffffffffffffffffffffffffffffffffffffff021916908373ffffffffffffffffffffffffffffffffffffffff160217905550565b6003602052816000526040600020818154811061104a57600080fd5b90600052602060002001600091509150505481565b60008054906101000a900473ffffffffffffffffffffffffffffffffffffffff1673ffffffffffffffffffffffffffffffffffffffff163373ffffffffffffffffffffffffffffffffffffffff16146110b757600080fd5b600073ffffffffffffffffffffffffffffffffffffffff168173ffffffffffffffffffffffffffffffffffffffff1614156110f157600080fd5b8073ffffffffffffffffffffffffffffffffffffffff1660008054906101000a900473ffffffffffffffffffffffffffffffffffffffff1673ffffffffffffffffffffffffffffffffffffffff167f8be0079c531659141344cd1fd0a4f28419497f9722a3daafe3b4186f6b6457e060405160405180910390a3806000806101000a81548173ffffffffffffffffffffffffffffffffffffffff021916908373ffffffffffffffffffffffffffffffffffffffff16021790555050565b600581815481106111be57600080fd5b906000526020600020016000915090505481565b600181815481106111e257600080fd5b90600052602060002090600502016000915090508060000160009054906101000a900463ffffffff16908060000160049054906101000a900461ffff169080600101549080600201549080600301805461123b906121e5565b80601f0160208091040260200160405190810160405280929190818152602001828054611267906121e5565b80156112b45780601f10611289576101008083540402835291602001916112b4565b820191906000526020600020905b81548152906001019060200180831161129757829003601f168201915b5050505050908060040154905086565b600080600090505b600580549050811015611341578260058281548110611314577f4e487b7100000000000000000000000000000000000000000000000000000000600052603260045260246000fd5b9060005260206000200154141561132e5780915050611366565b808061133990612217565b9150506112cc565b507fffffffffffffffffffffffffffffffffffffffffffffffffffffffffffffffff90505b919050565b816002600082815260200190815260200160002060009054906101000a900473ffffffffffffffffffffffffffffffffffffffff1673ffffffffffffffffffffffffffffffffffffffff163373ffffffffffffffffffffffffffffffffffffffff16146113d757600080fd5b60006113e38484611831565b9050600360008473ffffffffffffffffffffffffffffffffffffffff1673ffffffffffffffffffffffffffffffffffffffff1681526020019081526020016000208054905081106114345750611644565b60008190505b6001600360008673ffffffffffffffffffffffffffffffffffffffff1673ffffffffffffffffffffffffffffffffffffffff1681526020019081526020016000208054905061148991906120ff565b8110156115b657600360008573ffffffffffffffffffffffffffffffffffffffff1673ffffffffffffffffffffffffffffffffffffffff1681526020019081526020016000206001826114dc91906120a9565b81548110611513577f4e487b7100000000000000000000000000000000000000000000000000000000600052603260045260246000fd5b9060005260206000200154600360008673ffffffffffffffffffffffffffffffffffffffff1673ffffffffffffffffffffffffffffffffffffffff1681526020019081526020016000208281548110611595577f4e487b7100000000000000000000000000000000000000000000000000000000600052603260045260246000fd5b906000526020600020018190555080806115ae90612217565b91505061143a565b50600360008473ffffffffffffffffffffffffffffffffffffffff1673ffffffffffffffffffffffffffffffffffffffff16815260200190815260200160002080548061162c577f4e487b7100000000000000000000000000000000000000000000000000000000600052603160045260246000fd5b60019003818190600052602060002001600090559055505b505050565b61169c6001600460008573ffffffffffffffffffffffffffffffffffffffff1673ffffffffffffffffffffffffffffffffffffffff1681526020019081526020016000205461195390919063ffffffff16565b600460008473ffffffffffffffffffffffffffffffffffffffff1673ffffffffffffffffffffffffffffffffffffffff168152602001908152602001600020819055506117326001600460003373ffffffffffffffffffffffffffffffffffffffff1673ffffffffffffffffffffffffffffffffffffffff168152602001908152602001600020546119a590919063ffffffff16565b600460003373ffffffffffffffffffffffffffffffffffffffff1673ffffffffffffffffffffffffffffffffffffffff16815260200190815260200160002081905550816002600083815260200190815260200160002060006101000a81548173ffffffffffffffffffffffffffffffffffffffff021916908373ffffffffffffffffffffffffffffffffffffffff1602179055508173ffffffffffffffffffffffffffffffffffffffff168373ffffffffffffffffffffffffffffffffffffffff167fddf252ad1be2c89b69c2b068fc378daa952ba7f163c4a11628f55a4df523b3ef836040516118249190611f5f565b60405180910390a3505050565b600080600090505b600360008473ffffffffffffffffffffffffffffffffffffffff1673ffffffffffffffffffffffffffffffffffffffff168152602001908152602001600020805490508110156119285783600360008573ffffffffffffffffffffffffffffffffffffffff1673ffffffffffffffffffffffffffffffffffffffff16815260200190815260200160002082815481106118fb577f4e487b7100000000000000000000000000000000000000000000000000000000600052603260045260246000fd5b90600052602060002001541415611915578091505061194d565b808061192090612217565b915050611839565b507fffffffffffffffffffffffffffffffffffffffffffffffffffffffffffffffff90505b92915050565b600080828461196291906120a9565b90508381101561199b577f4e487b7100000000000000000000000000000000000000000000000000000000600052600160045260246000fd5b8091505092915050565b6000828211156119de577f4e487b7100000000000000000000000000000000000000000000000000000000600052600160045260246000fd5b81836119ea91906120ff565b905092915050565b8280546119fe906121e5565b90600052602060002090601f016020900481019282611a205760008555611a67565b82601f10611a3957805160ff1916838001178555611a67565b82800160010185558215611a67579182015b82811115611a66578251825591602001919060010190611a4b565b5b509050611a749190611ac1565b5090565b6040518060c00160405280600063ffffffff168152602001600061ffff168152602001600080191681526020016000801916815260200160608152602001600080191681525090565b5b80821115611ada576000816000905550600101611ac2565b5090565b6000611af1611aec84612013565b611fe2565b905082815260208101848484011115611b0957600080fd5b611b148482856121a3565b509392505050565b600081359050611b2b816122fe565b92915050565b600081359050611b4081612315565b92915050565b600082601f830112611b5757600080fd5b8135611b67848260208601611ade565b91505092915050565b600081359050611b7f8161232c565b92915050565b600081359050611b9481612343565b92915050565b600081359050611ba98161235a565b92915050565b600060208284031215611bc157600080fd5b6000611bcf84828501611b1c565b91505092915050565b60008060408385031215611beb57600080fd5b6000611bf985828601611b1c565b9250506020611c0a85828601611b85565b9150509250929050565b600060208284031215611c2657600080fd5b6000611c3484828501611b85565b91505092915050565b60008060008060008060c08789031215611c5657600080fd5b6000611c6489828a01611b9a565b9650506020611c7589828a01611b70565b9550506040611c8689828a01611b31565b9450506060611c9789828a01611b31565b935050608087013567ffffffffffffffff811115611cb457600080fd5b611cc089828a01611b46565b92505060a0611cd189828a01611b31565b9150509295509295509295565b6000611cea8383611ea9565b60208301905092915050565b611cff81612133565b82525050565b6000611d1082612053565b611d1a8185612076565b9350611d2583612043565b8060005b83811015611d56578151611d3d8882611cde565b9750611d4883612069565b925050600181019050611d29565b5085935050505092915050565b611d6c81612145565b82525050565b611d7b81612151565b82525050565b611d8a81612151565b82525050565b6000611d9b8261205e565b611da58185612087565b9350611db58185602086016121b2565b611dbe816122ed565b840191505092915050565b6000611dd48261205e565b611dde8185612098565b9350611dee8185602086016121b2565b611df7816122ed565b840191505092915050565b600060c083016000830151611e1a6000860182611ec7565b506020830151611e2d6020860182611e8b565b506040830151611e406040860182611d72565b506060830151611e536060860182611d72565b5060808301518482036080860152611e6b8282611d90565b91505060a0830151611e8060a0860182611d72565b508091505092915050565b611e948161215b565b82525050565b611ea38161215b565b82525050565b611eb281612189565b82525050565b611ec181612189565b82525050565b611ed081612193565b82525050565b611edf81612193565b82525050565b6000602082019050611efa6000830184611cf6565b92915050565b60006020820190508181036000830152611f1a8184611d05565b905092915050565b6000602082019050611f376000830184611d63565b92915050565b60006020820190508181036000830152611f578184611e02565b905092915050565b6000602082019050611f746000830184611eb8565b92915050565b600060c082019050611f8f6000830189611ed6565b611f9c6020830188611e9a565b611fa96040830187611d81565b611fb66060830186611d81565b8181036080830152611fc88185611dc9565b9050611fd760a0830184611d81565b979650505050505050565b6000604051905081810181811067ffffffffffffffff82111715612009576120086122be565b5b8060405250919050565b600067ffffffffffffffff82111561202e5761202d6122be565b5b601f19601f8301169050602081019050919050565b6000819050602082019050919050565b600081519050919050565b600081519050919050565b6000602082019050919050565b600082825260208201905092915050565b600082825260208201905092915050565b600082825260208201905092915050565b60006120b482612189565b91506120bf83612189565b9250827fffffffffffffffffffffffffffffffffffffffffffffffffffffffffffffffff038211156120f4576120f3612260565b5b828201905092915050565b600061210a82612189565b915061211583612189565b92508282101561212857612127612260565b5b828203905092915050565b600061213e82612169565b9050919050565b60008115159050919050565b6000819050919050565b600061ffff82169050919050565b600073ffffffffffffffffffffffffffffffffffffffff82169050919050565b6000819050919050565b600063ffffffff82169050919050565b82818337600083830152505050565b60005b838110156121d05780820151818401526020810190506121b5565b838111156121df576000848401525b50505050565b600060028204905060018216806121fd57607f821691505b602082108114156122115761221061228f565b5b50919050565b600061222282612189565b91507fffffffffffffffffffffffffffffffffffffffffffffffffffffffffffffffff82141561225557612254612260565b5b600182019050919050565b7f4e487b7100000000000000000000000000000000000000000000000000000000600052601160045260246000fd5b7f4e487b7100000000000000000000000000000000000000000000000000000000600052602260045260246000fd5b7f4e487b7100000000000000000000000000000000000000000000000000000000600052604160045260246000fd5b6000601f19601f8301169050919050565b61230781612133565b811461231257600080fd5b50565b61231e81612151565b811461232957600080fd5b50565b6123358161215b565b811461234057600080fd5b50565b61234c81612189565b811461235757600080fd5b50565b61236381612193565b811461236e57600080fd5b5056fea26469706673582212209f319517a89db8f33ac1470a6b46cc339bf379e93787ec2119b90b94b472f1ff64736f6c63430008000033",
  "immutableReferences": {},
  "source": "// SPDX-License-Identifier: MIT\r\npragma solidity = 0.8.0;\r\n\r\nimport \"./librairies/ERC721.sol\";\r\nimport \"./librairies/SafeMath.sol\";\r\nimport \"./Marketplace.sol\";\r\n\r\n\r\ncontract PropertyOwnership is Marketplace, ERC721 {\r\n\r\n    using SafeMath for uint256;\r\n\r\n    mapping (uint => address) saleApprovals;\r\n\r\n    function balanceOf(address _owner) public override view returns (uint256 _balance) {\r\n        return ownerPropertyCount[_owner];\r\n    }\r\n\r\n    function ownerOf(uint256 _tokenId) public override view returns (address _owner) {\r\n        return propertyToOwner[_tokenId];\r\n    }\r\n\r\n    function transfer(address _to, uint256 _tokenId) public override onlyOwnerOf(_tokenId) {\r\n        _transfer(msg.sender, _to, _tokenId);\r\n    }\r\n\r\n    function approve(address _to, uint256 _tokenId) public override onlyOwnerOf(_tokenId) {\r\n        saleApprovals[_tokenId] = _to;\r\n        emit Approval(msg.sender, _to, _tokenId);\r\n    }\r\n\r\n    function takeOwnership(uint256 _tokenId) public override {\r\n        require(saleApprovals[_tokenId] == msg.sender);\r\n        address owner = ownerOf(_tokenId);\r\n        _transfer(owner, msg.sender, _tokenId);\r\n    }\r\n\r\n    function _transfer(address _from, address _to, uint256 _tokenId) private {\r\n        ownerPropertyCount[_to] = ownerPropertyCount[_to].add(1);\r\n        ownerPropertyCount[msg.sender] = ownerPropertyCount[msg.sender].sub(1);\r\n        propertyToOwner[_tokenId] = _to;\r\n        emit Transfer(_from, _to, _tokenId);\r\n    }\r\n}\r\n",
  "sourcePath": "D:/ESGI/blockchain/chain/contracts/PropertyOwnership.sol",
  "compiler": {
    "name": "solc",
    "version": "0.8.0+commit.c7dfd78e.Emscripten.clang"
  },
  "schemaVersion": "3.3.3",
  "updatedAt": "2021-01-19T00:03:33.083Z",
  "networkType": "ethereum",
  "devdoc": {
    "kind": "dev",
    "methods": {
      "ownable()": {
        "details": "The Ownable constructor sets the original `owner` of the contract to the sender account."
      },
      "transferOwnership(address)": {
        "details": "Allows the current owner to transfer control of the contract to a newOwner.",
        "params": {
          "newOwner": "The address to transfer ownership to."
        }
      }
    },
    "version": 1
  },
  "userdoc": {
    "kind": "user",
    "methods": {},
    "version": 1
  }
}