{
  "contractName": "PropertyFactory",
  "abi": [
    {
      "anonymous": false,
      "inputs": [
        {
          "indexed": true,
          "internalType": "address",
          "name": "previousOwner",
          "type": "address"
        },
        {
          "indexed": true,
          "internalType": "address",
          "name": "newOwner",
          "type": "address"
        }
      ],
      "name": "OwnershipTransferred",
      "type": "event"
    },
    {
      "inputs": [],
      "name": "ownable",
      "outputs": [],
      "stateMutability": "nonpayable",
      "type": "function"
    },
    {
      "inputs": [],
      "name": "owner",
      "outputs": [
        {
          "internalType": "address",
          "name": "",
          "type": "address"
        }
      ],
      "stateMutability": "view",
      "type": "function"
    },
    {
      "inputs": [
        {
          "internalType": "address",
          "name": "",
          "type": "address"
        },
        {
          "internalType": "uint256",
          "name": "",
          "type": "uint256"
        }
      ],
      "name": "ownerToProperties",
      "outputs": [
        {
          "internalType": "uint256",
          "name": "",
          "type": "uint256"
        }
      ],
      "stateMutability": "view",
      "type": "function"
    },
    {
      "inputs": [
        {
          "internalType": "uint256",
          "name": "",
          "type": "uint256"
        }
      ],
      "name": "properties",
      "outputs": [
        {
          "internalType": "uint32",
          "name": "price",
          "type": "uint32"
        },
        {
          "internalType": "uint16",
          "name": "surface",
          "type": "uint16"
        },
        {
          "internalType": "bytes32",
          "name": "addr",
          "type": "bytes32"
        },
        {
          "internalType": "bytes32",
          "name": "name",
          "type": "bytes32"
        },
        {
          "internalType": "string",
          "name": "description",
          "type": "string"
        },
        {
          "internalType": "bytes32",
          "name": "dateUtc",
          "type": "bytes32"
        }
      ],
      "stateMutability": "view",
      "type": "function"
    },
    {
      "inputs": [
        {
          "internalType": "uint256",
          "name": "",
          "type": "uint256"
        }
      ],
      "name": "propertyToOwner",
      "outputs": [
        {
          "internalType": "address",
          "name": "",
          "type": "address"
        }
      ],
      "stateMutability": "view",
      "type": "function"
    },
    {
      "inputs": [
        {
          "internalType": "address",
          "name": "newOwner",
          "type": "address"
        }
      ],
      "name": "transferOwnership",
      "outputs": [],
      "stateMutability": "nonpayable",
      "type": "function"
    },
    {
      "inputs": [
        {
          "internalType": "uint32",
          "name": "price",
          "type": "uint32"
        },
        {
          "internalType": "uint16",
          "name": "surface",
          "type": "uint16"
        },
        {
          "internalType": "bytes32",
          "name": "name",
          "type": "bytes32"
        },
        {
          "internalType": "bytes32",
          "name": "addr",
          "type": "bytes32"
        },
        {
          "internalType": "string",
          "name": "description",
          "type": "string"
        },
        {
          "internalType": "bytes32",
          "name": "dateUtc",
          "type": "bytes32"
        }
      ],
      "name": "createProperty",
      "outputs": [],
      "stateMutability": "nonpayable",
      "type": "function"
    },
    {
      "inputs": [
        {
          "internalType": "uint256",
          "name": "propertyId",
          "type": "uint256"
        }
      ],
      "name": "getProperty",
      "outputs": [
        {
          "components": [
            {
              "internalType": "uint32",
              "name": "price",
              "type": "uint32"
            },
            {
              "internalType": "uint16",
              "name": "surface",
              "type": "uint16"
            },
            {
              "internalType": "bytes32",
              "name": "addr",
              "type": "bytes32"
            },
            {
              "internalType": "bytes32",
              "name": "name",
              "type": "bytes32"
            },
            {
              "internalType": "string",
              "name": "description",
              "type": "string"
            },
            {
              "internalType": "bytes32",
              "name": "dateUtc",
              "type": "bytes32"
            }
          ],
          "internalType": "struct PropertyFactory.Property",
          "name": "_property",
          "type": "tuple"
        }
      ],
      "stateMutability": "view",
      "type": "function"
    },
    {
      "inputs": [],
      "name": "getPropertiesByOwner",
      "outputs": [
        {
          "internalType": "uint256[]",
          "name": "_properties",
          "type": "uint256[]"
        }
      ],
      "stateMutability": "view",
      "type": "function"
    }
  ],
  "bytecode": "0x608060405234801561001057600080fd5b5061128d806100206000396000f3fe608060405234801561001057600080fd5b50600436106100935760003560e01c80638da5cb5b116100665780638da5cb5b14610132578063b38854be14610150578063e797888e1461015a578063f2fde38b1461018a578063f7b10808146101a657610093565b80630b56e383146100985780631eba13c1146100c85780632734e146146100e657806332665ffb14610102575b600080fd5b6100b260048036038101906100ad9190610bad565b6101db565b6040516100bf9190610e6f565b60405180910390f35b6100d061020e565b6040516100dd9190610e8a565b60405180910390f35b61010060048036038101906100fb9190610bd6565b6102a3565b005b61011c60048036038101906101179190610bad565b6104f8565b6040516101299190610eac565b60405180910390f35b61013a610661565b6040516101479190610e6f565b60405180910390f35b610158610685565b005b610174600480360381019061016f9190610b71565b6106c7565b6040516101819190610ece565b60405180910390f35b6101a4600480360381019061019f9190610b48565b6106f8565b005b6101c060048036038101906101bb9190610bad565b610847565b6040516101d296959493929190610ee9565b60405180910390f35b60026020528060005260406000206000915054906101000a900473ffffffffffffffffffffffffffffffffffffffff1681565b6060600360003373ffffffffffffffffffffffffffffffffffffffff1673ffffffffffffffffffffffffffffffffffffffff16815260200190815260200160002080548060200260200160405190810160405280929190818152602001828054801561029957602002820191906000526020600020905b815481526020019060010190808311610285575b5050505050905090565b60016040518060c001604052808863ffffffff1681526020018761ffff16815260200185815260200186815260200184815260200183815250908060018154018082558091505060019003906000526020600020906005020160009091909190915060008201518160000160006101000a81548163ffffffff021916908363ffffffff16021790555060208201518160000160046101000a81548161ffff021916908361ffff1602179055506040820151816001015560608201518160020155608082015181600301908051906020019061037f92919061098b565b5060a08201518160040155505060006001808054905061039f9190611018565b9050336002600083815260200190815260200160002060006101000a81548173ffffffffffffffffffffffffffffffffffffffff021916908373ffffffffffffffffffffffffffffffffffffffff160217905550600360003373ffffffffffffffffffffffffffffffffffffffff1673ffffffffffffffffffffffffffffffffffffffff1681526020019081526020016000208190806001815401808255809150506001900390600052602060002001600090919091909150556104ac6001600460003373ffffffffffffffffffffffffffffffffffffffff1673ffffffffffffffffffffffffffffffffffffffff1681526020019081526020016000205461093990919063ffffffff16565b600460003373ffffffffffffffffffffffffffffffffffffffff1673ffffffffffffffffffffffffffffffffffffffff1681526020019081526020016000208190555050505050505050565b610500610a11565b816001805490501161051157600080fd5b6001828154811061054b577f4e487b7100000000000000000000000000000000000000000000000000000000600052603260045260246000fd5b90600052602060002090600502016040518060c00160405290816000820160009054906101000a900463ffffffff1663ffffffff1663ffffffff1681526020016000820160049054906101000a900461ffff1661ffff1661ffff16815260200160018201548152602001600282015481526020016003820180546105ce90611114565b80601f01602080910402602001604051908101604052809291908181526020018280546105fa90611114565b80156106475780601f1061061c57610100808354040283529160200191610647565b820191906000526020600020905b81548152906001019060200180831161062a57829003601f168201915b505050505081526020016004820154815250509050919050565b60008054906101000a900473ffffffffffffffffffffffffffffffffffffffff1681565b336000806101000a81548173ffffffffffffffffffffffffffffffffffffffff021916908373ffffffffffffffffffffffffffffffffffffffff160217905550565b600360205281600052604060002081815481106106e357600080fd5b90600052602060002001600091509150505481565b60008054906101000a900473ffffffffffffffffffffffffffffffffffffffff1673ffffffffffffffffffffffffffffffffffffffff163373ffffffffffffffffffffffffffffffffffffffff161461075057600080fd5b600073ffffffffffffffffffffffffffffffffffffffff168173ffffffffffffffffffffffffffffffffffffffff16141561078a57600080fd5b8073ffffffffffffffffffffffffffffffffffffffff1660008054906101000a900473ffffffffffffffffffffffffffffffffffffffff1673ffffffffffffffffffffffffffffffffffffffff167f8be0079c531659141344cd1fd0a4f28419497f9722a3daafe3b4186f6b6457e060405160405180910390a3806000806101000a81548173ffffffffffffffffffffffffffffffffffffffff021916908373ffffffffffffffffffffffffffffffffffffffff16021790555050565b6001818154811061085757600080fd5b90600052602060002090600502016000915090508060000160009054906101000a900463ffffffff16908060000160049054906101000a900461ffff16908060010154908060020154908060030180546108b090611114565b80601f01602080910402602001604051908101604052809291908181526020018280546108dc90611114565b80156109295780601f106108fe57610100808354040283529160200191610929565b820191906000526020600020905b81548152906001019060200180831161090c57829003601f168201915b5050505050908060040154905086565b60008082846109489190611018565b905083811015610981577f4e487b7100000000000000000000000000000000000000000000000000000000600052600160045260246000fd5b8091505092915050565b82805461099790611114565b90600052602060002090601f0160209004810192826109b95760008555610a00565b82601f106109d257805160ff1916838001178555610a00565b82800160010185558215610a00579182015b828111156109ff5782518255916020019190600101906109e4565b5b509050610a0d9190610a5a565b5090565b6040518060c00160405280600063ffffffff168152602001600061ffff168152602001600080191681526020016000801916815260200160608152602001600080191681525090565b5b80821115610a73576000816000905550600101610a5b565b5090565b6000610a8a610a8584610f82565b610f51565b905082815260208101848484011115610aa257600080fd5b610aad8482856110d2565b509392505050565b600081359050610ac4816111e4565b92915050565b600081359050610ad9816111fb565b92915050565b600082601f830112610af057600080fd5b8135610b00848260208601610a77565b91505092915050565b600081359050610b1881611212565b92915050565b600081359050610b2d81611229565b92915050565b600081359050610b4281611240565b92915050565b600060208284031215610b5a57600080fd5b6000610b6884828501610ab5565b91505092915050565b60008060408385031215610b8457600080fd5b6000610b9285828601610ab5565b9250506020610ba385828601610b1e565b9150509250929050565b600060208284031215610bbf57600080fd5b6000610bcd84828501610b1e565b91505092915050565b60008060008060008060c08789031215610bef57600080fd5b6000610bfd89828a01610b33565b9650506020610c0e89828a01610b09565b9550506040610c1f89828a01610aca565b9450506060610c3089828a01610aca565b935050608087013567ffffffffffffffff811115610c4d57600080fd5b610c5989828a01610adf565b92505060a0610c6a89828a01610aca565b9150509295509295509295565b6000610c838383610e33565b60208301905092915050565b610c988161106e565b82525050565b6000610ca982610fc2565b610cb38185610fe5565b9350610cbe83610fb2565b8060005b83811015610cef578151610cd68882610c77565b9750610ce183610fd8565b925050600181019050610cc2565b5085935050505092915050565b610d0581611080565b82525050565b610d1481611080565b82525050565b6000610d2582610fcd565b610d2f8185610ff6565b9350610d3f8185602086016110e1565b610d48816111d3565b840191505092915050565b6000610d5e82610fcd565b610d688185611007565b9350610d788185602086016110e1565b610d81816111d3565b840191505092915050565b600060c083016000830151610da46000860182610e51565b506020830151610db76020860182610e15565b506040830151610dca6040860182610cfc565b506060830151610ddd6060860182610cfc565b5060808301518482036080860152610df58282610d1a565b91505060a0830151610e0a60a0860182610cfc565b508091505092915050565b610e1e8161108a565b82525050565b610e2d8161108a565b82525050565b610e3c816110b8565b82525050565b610e4b816110b8565b82525050565b610e5a816110c2565b82525050565b610e69816110c2565b82525050565b6000602082019050610e846000830184610c8f565b92915050565b60006020820190508181036000830152610ea48184610c9e565b905092915050565b60006020820190508181036000830152610ec68184610d8c565b905092915050565b6000602082019050610ee36000830184610e42565b92915050565b600060c082019050610efe6000830189610e60565b610f0b6020830188610e24565b610f186040830187610d0b565b610f256060830186610d0b565b8181036080830152610f378185610d53565b9050610f4660a0830184610d0b565b979650505050505050565b6000604051905081810181811067ffffffffffffffff82111715610f7857610f776111a4565b5b8060405250919050565b600067ffffffffffffffff821115610f9d57610f9c6111a4565b5b601f19601f8301169050602081019050919050565b6000819050602082019050919050565b600081519050919050565b600081519050919050565b6000602082019050919050565b600082825260208201905092915050565b600082825260208201905092915050565b600082825260208201905092915050565b6000611023826110b8565b915061102e836110b8565b9250827fffffffffffffffffffffffffffffffffffffffffffffffffffffffffffffffff0382111561106357611062611146565b5b828201905092915050565b600061107982611098565b9050919050565b6000819050919050565b600061ffff82169050919050565b600073ffffffffffffffffffffffffffffffffffffffff82169050919050565b6000819050919050565b600063ffffffff82169050919050565b82818337600083830152505050565b60005b838110156110ff5780820151818401526020810190506110e4565b8381111561110e576000848401525b50505050565b6000600282049050600182168061112c57607f821691505b602082108114156111405761113f611175565b5b50919050565b7f4e487b7100000000000000000000000000000000000000000000000000000000600052601160045260246000fd5b7f4e487b7100000000000000000000000000000000000000000000000000000000600052602260045260246000fd5b7f4e487b7100000000000000000000000000000000000000000000000000000000600052604160045260246000fd5b6000601f19601f8301169050919050565b6111ed8161106e565b81146111f857600080fd5b50565b61120481611080565b811461120f57600080fd5b50565b61121b8161108a565b811461122657600080fd5b50565b611232816110b8565b811461123d57600080fd5b50565b611249816110c2565b811461125457600080fd5b5056fea26469706673582212202f79bbca500f75195082b3a8e47b225a089ad9d528cd1cbfc77658c21f58128164736f6c63430008000033",
  "immutableReferences": {},
  "source": "// SPDX-License-Identifier: MIT\npragma solidity = 0.8.0;\n\nimport \"./librairies/Ownable.sol\";\nimport \"./librairies/SafeMath.sol\";\n\ncontract PropertyFactory is Ownable {\n\n    using SafeMath for uint256;\n\n    modifier onlyOwnerOf(uint _propertyId) {\n        require(msg.sender == propertyToOwner[_propertyId]);\n        _;\n    }\n\n    struct Property {\n        uint32 price;\n        uint16 surface;\n        bytes32 addr;\n        bytes32 name;\n        string description;\n        bytes32 dateUtc;\n    }\n\n    Property[] public properties;\n\n    mapping (uint => address) public propertyToOwner;\n    mapping (address => uint[]) public ownerToProperties;\n    mapping (address => uint) ownerPropertyCount;\n\n    function createProperty(\n        uint32 price,\n        uint16 surface,\n        bytes32 name,\n        bytes32 addr,\n        string memory description,\n        bytes32 dateUtc\n    ) public {\n        properties.push(Property(price, surface, addr, name, description, dateUtc));\n        uint id = properties.length + 1;\n        propertyToOwner[id] = msg.sender;\n        ownerToProperties[msg.sender].push(id);\n        ownerPropertyCount[msg.sender] = ownerPropertyCount[msg.sender].add(1);\n    }\n\n    function getProperty(uint propertyId) public view returns (Property memory _property) {\n        require(properties.length > propertyId);\n        return properties[propertyId];\n    }\n\n    function getPropertiesByOwner() public view returns (uint[] memory _properties) {\n        return ownerToProperties[msg.sender];\n    }\n\n}\n",
  "sourcePath": "/home/shengael/Documents/__esgi/2020_2021/blockchain/BLAPimmo/contracts/PropertyFactory.sol",
  "compiler": {
    "name": "solc",
    "version": "0.8.0+commit.c7dfd78e.Emscripten.clang"
  },
  "schemaVersion": "3.3.3",
  "updatedAt": "2021-01-17T14:21:57.772Z",
  "devdoc": {
    "kind": "dev",
    "methods": {
      "ownable()": {
        "details": "The Ownable constructor sets the original `owner` of the contract to the sender account."
      },
      "transferOwnership(address)": {
        "details": "Allows the current owner to transfer control of the contract to a newOwner.",
        "params": {
          "newOwner": "The address to transfer ownership to."
        }
      }
    },
    "version": 1
  },
  "userdoc": {
    "kind": "user",
    "methods": {},
    "version": 1
  }
}