{
  "contractName": "PropertyOwnership",
  "abi": [
    {
      "anonymous": false,
      "inputs": [
        {
          "indexed": true,
          "internalType": "address",
          "name": "_owner",
          "type": "address"
        },
        {
          "indexed": true,
          "internalType": "address",
          "name": "_approved",
          "type": "address"
        },
        {
          "indexed": false,
          "internalType": "uint256",
          "name": "_tokenId",
          "type": "uint256"
        }
      ],
      "name": "Approval",
      "type": "event"
    },
    {
      "anonymous": false,
      "inputs": [
        {
          "indexed": true,
          "internalType": "address",
          "name": "previousOwner",
          "type": "address"
        },
        {
          "indexed": true,
          "internalType": "address",
          "name": "newOwner",
          "type": "address"
        }
      ],
      "name": "OwnershipTransferred",
      "type": "event"
    },
    {
      "anonymous": false,
      "inputs": [
        {
          "indexed": true,
          "internalType": "address",
          "name": "_from",
          "type": "address"
        },
        {
          "indexed": true,
          "internalType": "address",
          "name": "_to",
          "type": "address"
        },
        {
          "indexed": false,
          "internalType": "uint256",
          "name": "_tokenId",
          "type": "uint256"
        }
      ],
      "name": "Transfer",
      "type": "event"
    },
    {
      "anonymous": false,
      "inputs": [
        {
          "indexed": false,
          "internalType": "uint256",
          "name": "propertyId",
          "type": "uint256"
        }
      ],
      "name": "deletedSale",
      "type": "event"
    },
    {
      "anonymous": false,
      "inputs": [
        {
          "indexed": false,
          "internalType": "uint256",
          "name": "propertyId",
          "type": "uint256"
        }
      ],
      "name": "newSale",
      "type": "event"
    },
    {
      "inputs": [
        {
          "internalType": "uint256",
          "name": "propertyId",
          "type": "uint256"
        }
      ],
      "name": "addProperty",
      "outputs": [],
      "stateMutability": "nonpayable",
      "type": "function"
    },
    {
      "inputs": [
        {
          "internalType": "uint32",
          "name": "price",
          "type": "uint32"
        },
        {
          "internalType": "uint16",
          "name": "surface",
          "type": "uint16"
        },
        {
          "internalType": "bytes32",
          "name": "name",
          "type": "bytes32"
        },
        {
          "internalType": "bytes32",
          "name": "addr",
          "type": "bytes32"
        },
        {
          "internalType": "string",
          "name": "description",
          "type": "string"
        },
        {
          "internalType": "bytes32",
          "name": "dateUtc",
          "type": "bytes32"
        }
      ],
      "name": "createProperty",
      "outputs": [],
      "stateMutability": "nonpayable",
      "type": "function"
    },
    {
      "inputs": [],
      "name": "getMarketPlace",
      "outputs": [
        {
          "internalType": "uint256[]",
          "name": "_marketPlace",
          "type": "uint256[]"
        }
      ],
      "stateMutability": "view",
      "type": "function",
      "constant": true
    },
    {
      "inputs": [],
      "name": "getPropertiesByOwner",
      "outputs": [
        {
          "internalType": "uint256[]",
          "name": "_properties",
          "type": "uint256[]"
        }
      ],
      "stateMutability": "view",
      "type": "function",
      "constant": true
    },
    {
      "inputs": [
        {
          "internalType": "uint256",
          "name": "propertyId",
          "type": "uint256"
        }
      ],
      "name": "getProperty",
      "outputs": [
        {
          "components": [
            {
              "internalType": "uint32",
              "name": "price",
              "type": "uint32"
            },
            {
              "internalType": "uint16",
              "name": "surface",
              "type": "uint16"
            },
            {
              "internalType": "bytes32",
              "name": "addr",
              "type": "bytes32"
            },
            {
              "internalType": "bytes32",
              "name": "name",
              "type": "bytes32"
            },
            {
              "internalType": "string",
              "name": "description",
              "type": "string"
            },
            {
              "internalType": "bytes32",
              "name": "dateUtc",
              "type": "bytes32"
            }
          ],
          "internalType": "struct PropertyFactory.Property",
          "name": "_property",
          "type": "tuple"
        }
      ],
      "stateMutability": "view",
      "type": "function",
      "constant": true
    },
    {
      "inputs": [
        {
          "internalType": "uint256",
          "name": "propertyId",
          "type": "uint256"
        }
      ],
      "name": "isForSale",
      "outputs": [
        {
          "internalType": "bool",
          "name": "_isForSale",
          "type": "bool"
        }
      ],
      "stateMutability": "view",
      "type": "function",
      "constant": true
    },
    {
      "inputs": [
        {
          "internalType": "uint256",
          "name": "",
          "type": "uint256"
        }
      ],
      "name": "marketPlace",
      "outputs": [
        {
          "internalType": "uint256",
          "name": "",
          "type": "uint256"
        }
      ],
      "stateMutability": "view",
      "type": "function",
      "constant": true
    },
    {
      "inputs": [],
      "name": "ownable",
      "outputs": [],
      "stateMutability": "nonpayable",
      "type": "function"
    },
    {
      "inputs": [],
      "name": "owner",
      "outputs": [
        {
          "internalType": "address",
          "name": "",
          "type": "address"
        }
      ],
      "stateMutability": "view",
      "type": "function",
      "constant": true
    },
    {
      "inputs": [
        {
          "internalType": "address",
          "name": "",
          "type": "address"
        },
        {
          "internalType": "uint256",
          "name": "",
          "type": "uint256"
        }
      ],
      "name": "ownerToProperties",
      "outputs": [
        {
          "internalType": "uint256",
          "name": "",
          "type": "uint256"
        }
      ],
      "stateMutability": "view",
      "type": "function",
      "constant": true
    },
    {
      "inputs": [
        {
          "internalType": "uint256",
          "name": "",
          "type": "uint256"
        }
      ],
      "name": "properties",
      "outputs": [
        {
          "internalType": "uint32",
          "name": "price",
          "type": "uint32"
        },
        {
          "internalType": "uint16",
          "name": "surface",
          "type": "uint16"
        },
        {
          "internalType": "bytes32",
          "name": "addr",
          "type": "bytes32"
        },
        {
          "internalType": "bytes32",
          "name": "name",
          "type": "bytes32"
        },
        {
          "internalType": "string",
          "name": "description",
          "type": "string"
        },
        {
          "internalType": "bytes32",
          "name": "dateUtc",
          "type": "bytes32"
        }
      ],
      "stateMutability": "view",
      "type": "function",
      "constant": true
    },
    {
      "inputs": [
        {
          "internalType": "uint256",
          "name": "",
          "type": "uint256"
        }
      ],
      "name": "propertyToOwner",
      "outputs": [
        {
          "internalType": "address",
          "name": "",
          "type": "address"
        }
      ],
      "stateMutability": "view",
      "type": "function",
      "constant": true
    },
    {
      "inputs": [
        {
          "internalType": "uint256",
          "name": "propertyId",
          "type": "uint256"
        }
      ],
      "name": "removePropertyFromMarketPlace",
      "outputs": [],
      "stateMutability": "nonpayable",
      "type": "function"
    },
    {
      "inputs": [
        {
          "internalType": "uint256",
          "name": "_tokenId",
          "type": "uint256"
        }
      ],
      "name": "transaction",
      "outputs": [],
      "stateMutability": "payable",
      "type": "function",
      "payable": true
    },
    {
      "inputs": [
        {
          "internalType": "address",
          "name": "newOwner",
          "type": "address"
        }
      ],
      "name": "transferOwnership",
      "outputs": [],
      "stateMutability": "nonpayable",
      "type": "function"
    },
    {
      "inputs": [
        {
          "internalType": "address",
          "name": "_owner",
          "type": "address"
        }
      ],
      "name": "balanceOf",
      "outputs": [
        {
          "internalType": "uint256",
          "name": "_balance",
          "type": "uint256"
        }
      ],
      "stateMutability": "view",
      "type": "function",
      "constant": true
    },
    {
      "inputs": [
        {
          "internalType": "uint256",
          "name": "_tokenId",
          "type": "uint256"
        }
      ],
      "name": "ownerOf",
      "outputs": [
        {
          "internalType": "address",
          "name": "_owner",
          "type": "address"
        }
      ],
      "stateMutability": "view",
      "type": "function",
      "constant": true
    },
    {
      "inputs": [
        {
          "internalType": "address",
          "name": "_to",
          "type": "address"
        },
        {
          "internalType": "uint256",
          "name": "_tokenId",
          "type": "uint256"
        }
      ],
      "name": "transfer",
      "outputs": [],
      "stateMutability": "nonpayable",
      "type": "function"
    },
    {
      "inputs": [
        {
          "internalType": "address",
          "name": "_to",
          "type": "address"
        },
        {
          "internalType": "uint256",
          "name": "_tokenId",
          "type": "uint256"
        }
      ],
      "name": "approve",
      "outputs": [],
      "stateMutability": "nonpayable",
      "type": "function"
    },
    {
      "inputs": [
        {
          "internalType": "uint256",
          "name": "_tokenId",
          "type": "uint256"
        }
      ],
      "name": "takeOwnership",
      "outputs": [],
      "stateMutability": "nonpayable",
      "type": "function"
    }
  ],
  "bytecode": "0x608060405234801561001057600080fd5b5061263c806100206000396000f3fe60806040526004361061011f5760003560e01c806370a08231116100a0578063b38854be11610064578063b38854be146103e8578063e797888e146103ff578063f2fde38b1461043c578063f36b331f14610465578063f7b10808146104a25761011f565b806370a08231146102f15780638546d0021461032e5780638da5cb5b1461036b578063a9059cbb14610396578063b2e6ceeb146103bf5761011f565b80632734e146116100e75780632734e1461461020757806332665ffb1461023057806346bd08411461026d5780636352211e1461028957806364d00c45146102c65761011f565b80630894372714610124578063095ea7b31461014d5780630b56e383146101765780631eba13c1146101b3578063267982e8146101de575b600080fd5b34801561013057600080fd5b5061014b60048036038101906101469190611ea9565b6104e4565b005b34801561015957600080fd5b50610174600480360381019061016f9190611e6d565b61068f565b005b34801561018257600080fd5b5061019d60048036038101906101989190611ea9565b6107b7565b6040516101aa919061217a565b60405180910390f35b3480156101bf57600080fd5b506101c86107ea565b6040516101d59190612195565b60405180910390f35b3480156101ea57600080fd5b5061020560048036038101906102009190611ea9565b61087f565b005b34801561021357600080fd5b5061022e60048036038101906102299190611ed2565b61094f565b005b34801561023c57600080fd5b5061025760048036038101906102529190611ea9565b610b99565b60405161026491906121d2565b60405180910390f35b61028760048036038101906102829190611ea9565b610d02565b005b34801561029557600080fd5b506102b060048036038101906102ab9190611ea9565b611067565b6040516102bd919061217a565b60405180910390f35b3480156102d257600080fd5b506102db6110a4565b6040516102e89190612195565b60405180910390f35b3480156102fd57600080fd5b5061031860048036038101906103139190611e44565b6110fc565b60405161032591906121f4565b60405180910390f35b34801561033a57600080fd5b5061035560048036038101906103509190611ea9565b611145565b60405161036291906121b7565b60405180910390f35b34801561037757600080fd5b5061038061115a565b60405161038d919061217a565b60405180910390f35b3480156103a257600080fd5b506103bd60048036038101906103b89190611e6d565b61117e565b005b3480156103cb57600080fd5b506103e660048036038101906103e19190611ea9565b6111fa565b005b3480156103f457600080fd5b506103fd611281565b005b34801561040b57600080fd5b5061042660048036038101906104219190611e6d565b6112c3565b60405161043391906121f4565b60405180910390f35b34801561044857600080fd5b50610463600480360381019061045e9190611e44565b6112f4565b005b34801561047157600080fd5b5061048c60048036038101906104879190611ea9565b611443565b60405161049991906121f4565b60405180910390f35b3480156104ae57600080fd5b506104c960048036038101906104c49190611ea9565b611467565b6040516104db9695949392919061220f565b60405180910390f35b806002600082815260200190815260200160002060009054906101000a900473ffffffffffffffffffffffffffffffffffffffff1673ffffffffffffffffffffffffffffffffffffffff163373ffffffffffffffffffffffffffffffffffffffff161461055057600080fd5b600061055b83611559565b9050600580549050811061056f575061068b565b60008190505b60016005805490506105879190612394565b81101561063a57600560018261059d919061233e565b815481106105d4577f4e487b7100000000000000000000000000000000000000000000000000000000600052603260045260246000fd5b906000526020600020015460058281548110610619577f4e487b7100000000000000000000000000000000000000000000000000000000600052603260045260246000fd5b90600052602060002001819055508080610632906124ac565b915050610575565b506005805480610673577f4e487b7100000000000000000000000000000000000000000000000000000000600052603160045260246000fd5b60019003818190600052602060002001600090559055505b5050565b806002600082815260200190815260200160002060009054906101000a900473ffffffffffffffffffffffffffffffffffffffff1673ffffffffffffffffffffffffffffffffffffffff163373ffffffffffffffffffffffffffffffffffffffff16146106fb57600080fd5b826006600084815260200190815260200160002060006101000a81548173ffffffffffffffffffffffffffffffffffffffff021916908373ffffffffffffffffffffffffffffffffffffffff1602179055508273ffffffffffffffffffffffffffffffffffffffff163373ffffffffffffffffffffffffffffffffffffffff167f8c5be1e5ebec7d5bd14f71427d1e84f3dd0314c0f7b2291e5b200ac8c7c3b925846040516107aa91906121f4565b60405180910390a3505050565b60026020528060005260406000206000915054906101000a900473ffffffffffffffffffffffffffffffffffffffff1681565b6060600360003373ffffffffffffffffffffffffffffffffffffffff1673ffffffffffffffffffffffffffffffffffffffff16815260200190815260200160002080548060200260200160405190810160405280929190818152602001828054801561087557602002820191906000526020600020905b815481526020019060010190808311610861575b5050505050905090565b806002600082815260200190815260200160002060009054906101000a900473ffffffffffffffffffffffffffffffffffffffff1673ffffffffffffffffffffffffffffffffffffffff163373ffffffffffffffffffffffffffffffffffffffff16146108eb57600080fd5b60058290806001815401808255809150506001900390600052602060002001600090919091909150557f30edb07c99f8ac2382c54e90f4de0a2623f843077198d78f3e75465d5b61320b8260405161094391906121f4565b60405180910390a15050565b60016040518060c001604052808863ffffffff1681526020018761ffff16815260200185815260200186815260200184815260200183815250908060018154018082558091505060019003906000526020600020906005020160009091909190915060008201518160000160006101000a81548163ffffffff021916908363ffffffff16021790555060208201518160000160046101000a81548161ffff021916908361ffff16021790555060408201518160010155606082015181600201556080820151816003019080519060200190610a2b929190611c87565b5060a08201518160040155505060006001805490509050336002600083815260200190815260200160002060006101000a81548173ffffffffffffffffffffffffffffffffffffffff021916908373ffffffffffffffffffffffffffffffffffffffff160217905550600360003373ffffffffffffffffffffffffffffffffffffffff1673ffffffffffffffffffffffffffffffffffffffff168152602001908152602001600020819080600181540180825580915050600190039060005260206000200160009091909190915055610b4d6001600460003373ffffffffffffffffffffffffffffffffffffffff1673ffffffffffffffffffffffffffffffffffffffff1681526020019081526020016000205461160090919063ffffffff16565b600460003373ffffffffffffffffffffffffffffffffffffffff1673ffffffffffffffffffffffffffffffffffffffff1681526020019081526020016000208190555050505050505050565b610ba1611d0d565b8160018054905011610bb257600080fd5b60018281548110610bec577f4e487b7100000000000000000000000000000000000000000000000000000000600052603260045260246000fd5b90600052602060002090600502016040518060c00160405290816000820160009054906101000a900463ffffffff1663ffffffff1663ffffffff1681526020016000820160049054906101000a900461ffff1661ffff1661ffff1681526020016001820154815260200160028201548152602001600382018054610c6f9061247a565b80601f0160208091040260200160405190810160405280929190818152602001828054610c9b9061247a565b8015610ce85780601f10610cbd57610100808354040283529160200191610ce8565b820191906000526020600020905b815481529060010190602001808311610ccb57829003601f168201915b505050505081526020016004820154815250509050919050565b806000610d0e82611559565b1215610d1957600080fd5b60018181548110610d53577f4e487b7100000000000000000000000000000000000000000000000000000000600052603260045260246000fd5b906000526020600020906005020160000160009054906101000a900463ffffffff1663ffffffff163414610d8657600080fd5b60006002600084815260200190815260200160002060009054906101000a900473ffffffffffffffffffffffffffffffffffffffff1690508073ffffffffffffffffffffffffffffffffffffffff166108fc349081150290604051600060405180830381858888f19350505050158015610e04573d6000803e3d6000fd5b50610e8b6001600460006002600088815260200190815260200160002060009054906101000a900473ffffffffffffffffffffffffffffffffffffffff1673ffffffffffffffffffffffffffffffffffffffff1673ffffffffffffffffffffffffffffffffffffffff1681526020019081526020016000205461165290919063ffffffff16565b600460006002600087815260200190815260200160002060009054906101000a900473ffffffffffffffffffffffffffffffffffffffff1673ffffffffffffffffffffffffffffffffffffffff1673ffffffffffffffffffffffffffffffffffffffff16815260200190815260200160002081905550610f546001600460003373ffffffffffffffffffffffffffffffffffffffff1673ffffffffffffffffffffffffffffffffffffffff1681526020019081526020016000205461160090919063ffffffff16565b600460003373ffffffffffffffffffffffffffffffffffffffff1673ffffffffffffffffffffffffffffffffffffffff16815260200190815260200160002081905550336002600085815260200190815260200160002060006101000a81548173ffffffffffffffffffffffffffffffffffffffff021916908373ffffffffffffffffffffffffffffffffffffffff160217905550610ff3838261169f565b600360003373ffffffffffffffffffffffffffffffffffffffff1673ffffffffffffffffffffffffffffffffffffffff168152602001908152602001600020839080600181540180825580915050600190039060005260206000200160009091909190915055611062836104e4565b505050565b60006002600083815260200190815260200160002060009054906101000a900473ffffffffffffffffffffffffffffffffffffffff169050919050565b606060058054806020026020016040519081016040528092919081815260200182805480156110f257602002820191906000526020600020905b8154815260200190600101908083116110de575b5050505050905090565b6000600460008373ffffffffffffffffffffffffffffffffffffffff1673ffffffffffffffffffffffffffffffffffffffff168152602001908152602001600020549050919050565b60008061115183611559565b12159050919050565b60008054906101000a900473ffffffffffffffffffffffffffffffffffffffff1681565b806002600082815260200190815260200160002060009054906101000a900473ffffffffffffffffffffffffffffffffffffffff1673ffffffffffffffffffffffffffffffffffffffff163373ffffffffffffffffffffffffffffffffffffffff16146111ea57600080fd5b6111f533848461197d565b505050565b3373ffffffffffffffffffffffffffffffffffffffff166006600083815260200190815260200160002060009054906101000a900473ffffffffffffffffffffffffffffffffffffffff1673ffffffffffffffffffffffffffffffffffffffff161461126557600080fd5b600061127082611067565b905061127d81338461197d565b5050565b336000806101000a81548173ffffffffffffffffffffffffffffffffffffffff021916908373ffffffffffffffffffffffffffffffffffffffff160217905550565b600360205281600052604060002081815481106112df57600080fd5b90600052602060002001600091509150505481565b60008054906101000a900473ffffffffffffffffffffffffffffffffffffffff1673ffffffffffffffffffffffffffffffffffffffff163373ffffffffffffffffffffffffffffffffffffffff161461134c57600080fd5b600073ffffffffffffffffffffffffffffffffffffffff168173ffffffffffffffffffffffffffffffffffffffff16141561138657600080fd5b8073ffffffffffffffffffffffffffffffffffffffff1660008054906101000a900473ffffffffffffffffffffffffffffffffffffffff1673ffffffffffffffffffffffffffffffffffffffff167f8be0079c531659141344cd1fd0a4f28419497f9722a3daafe3b4186f6b6457e060405160405180910390a3806000806101000a81548173ffffffffffffffffffffffffffffffffffffffff021916908373ffffffffffffffffffffffffffffffffffffffff16021790555050565b6005818154811061145357600080fd5b906000526020600020016000915090505481565b6001818154811061147757600080fd5b90600052602060002090600502016000915090508060000160009054906101000a900463ffffffff16908060000160049054906101000a900461ffff16908060010154908060020154908060030180546114d09061247a565b80601f01602080910402602001604051908101604052809291908181526020018280546114fc9061247a565b80156115495780601f1061151e57610100808354040283529160200191611549565b820191906000526020600020905b81548152906001019060200180831161152c57829003601f168201915b5050505050908060040154905086565b600080600090505b6005805490508110156115d65782600582815481106115a9577f4e487b7100000000000000000000000000000000000000000000000000000000600052603260045260246000fd5b906000526020600020015414156115c357809150506115fb565b80806115ce906124ac565b915050611561565b507fffffffffffffffffffffffffffffffffffffffffffffffffffffffffffffffff90505b919050565b600080828461160f919061233e565b905083811015611648577f4e487b7100000000000000000000000000000000000000000000000000000000600052600160045260246000fd5b8091505092915050565b60008282111561168b577f4e487b7100000000000000000000000000000000000000000000000000000000600052600160045260246000fd5b81836116979190612394565b905092915050565b816002600082815260200190815260200160002060009054906101000a900473ffffffffffffffffffffffffffffffffffffffff1673ffffffffffffffffffffffffffffffffffffffff163373ffffffffffffffffffffffffffffffffffffffff161461170b57600080fd5b60006117178484611b65565b9050600360008473ffffffffffffffffffffffffffffffffffffffff1673ffffffffffffffffffffffffffffffffffffffff1681526020019081526020016000208054905081106117685750611978565b60008190505b6001600360008673ffffffffffffffffffffffffffffffffffffffff1673ffffffffffffffffffffffffffffffffffffffff168152602001908152602001600020805490506117bd9190612394565b8110156118ea57600360008573ffffffffffffffffffffffffffffffffffffffff1673ffffffffffffffffffffffffffffffffffffffff168152602001908152602001600020600182611810919061233e565b81548110611847577f4e487b7100000000000000000000000000000000000000000000000000000000600052603260045260246000fd5b9060005260206000200154600360008673ffffffffffffffffffffffffffffffffffffffff1673ffffffffffffffffffffffffffffffffffffffff16815260200190815260200160002082815481106118c9577f4e487b7100000000000000000000000000000000000000000000000000000000600052603260045260246000fd5b906000526020600020018190555080806118e2906124ac565b91505061176e565b50600360008473ffffffffffffffffffffffffffffffffffffffff1673ffffffffffffffffffffffffffffffffffffffff168152602001908152602001600020805480611960577f4e487b7100000000000000000000000000000000000000000000000000000000600052603160045260246000fd5b60019003818190600052602060002001600090559055505b505050565b6119d06001600460008573ffffffffffffffffffffffffffffffffffffffff1673ffffffffffffffffffffffffffffffffffffffff1681526020019081526020016000205461160090919063ffffffff16565b600460008473ffffffffffffffffffffffffffffffffffffffff1673ffffffffffffffffffffffffffffffffffffffff16815260200190815260200160002081905550611a666001600460003373ffffffffffffffffffffffffffffffffffffffff1673ffffffffffffffffffffffffffffffffffffffff1681526020019081526020016000205461165290919063ffffffff16565b600460003373ffffffffffffffffffffffffffffffffffffffff1673ffffffffffffffffffffffffffffffffffffffff16815260200190815260200160002081905550816002600083815260200190815260200160002060006101000a81548173ffffffffffffffffffffffffffffffffffffffff021916908373ffffffffffffffffffffffffffffffffffffffff1602179055508173ffffffffffffffffffffffffffffffffffffffff168373ffffffffffffffffffffffffffffffffffffffff167fddf252ad1be2c89b69c2b068fc378daa952ba7f163c4a11628f55a4df523b3ef83604051611b5891906121f4565b60405180910390a3505050565b600080600090505b600360008473ffffffffffffffffffffffffffffffffffffffff1673ffffffffffffffffffffffffffffffffffffffff16815260200190815260200160002080549050811015611c5c5783600360008573ffffffffffffffffffffffffffffffffffffffff1673ffffffffffffffffffffffffffffffffffffffff1681526020019081526020016000208281548110611c2f577f4e487b7100000000000000000000000000000000000000000000000000000000600052603260045260246000fd5b90600052602060002001541415611c495780915050611c81565b8080611c54906124ac565b915050611b6d565b507fffffffffffffffffffffffffffffffffffffffffffffffffffffffffffffffff90505b92915050565b828054611c939061247a565b90600052602060002090601f016020900481019282611cb55760008555611cfc565b82601f10611cce57805160ff1916838001178555611cfc565b82800160010185558215611cfc579182015b82811115611cfb578251825591602001919060010190611ce0565b5b509050611d099190611d56565b5090565b6040518060c00160405280600063ffffffff168152602001600061ffff168152602001600080191681526020016000801916815260200160608152602001600080191681525090565b5b80821115611d6f576000816000905550600101611d57565b5090565b6000611d86611d81846122a8565b612277565b905082815260208101848484011115611d9e57600080fd5b611da9848285612438565b509392505050565b600081359050611dc081612593565b92915050565b600081359050611dd5816125aa565b92915050565b600082601f830112611dec57600080fd5b8135611dfc848260208601611d73565b91505092915050565b600081359050611e14816125c1565b92915050565b600081359050611e29816125d8565b92915050565b600081359050611e3e816125ef565b92915050565b600060208284031215611e5657600080fd5b6000611e6484828501611db1565b91505092915050565b60008060408385031215611e8057600080fd5b6000611e8e85828601611db1565b9250506020611e9f85828601611e1a565b9150509250929050565b600060208284031215611ebb57600080fd5b6000611ec984828501611e1a565b91505092915050565b60008060008060008060c08789031215611eeb57600080fd5b6000611ef989828a01611e2f565b9650506020611f0a89828a01611e05565b9550506040611f1b89828a01611dc6565b9450506060611f2c89828a01611dc6565b935050608087013567ffffffffffffffff811115611f4957600080fd5b611f5589828a01611ddb565b92505060a0611f6689828a01611dc6565b9150509295509295509295565b6000611f7f838361213e565b60208301905092915050565b611f94816123c8565b82525050565b6000611fa5826122e8565b611faf818561230b565b9350611fba836122d8565b8060005b83811015611feb578151611fd28882611f73565b9750611fdd836122fe565b925050600181019050611fbe565b5085935050505092915050565b612001816123da565b82525050565b612010816123e6565b82525050565b61201f816123e6565b82525050565b6000612030826122f3565b61203a818561231c565b935061204a818560208601612447565b61205381612582565b840191505092915050565b6000612069826122f3565b612073818561232d565b9350612083818560208601612447565b61208c81612582565b840191505092915050565b600060c0830160008301516120af600086018261215c565b5060208301516120c26020860182612120565b5060408301516120d56040860182612007565b5060608301516120e86060860182612007565b50608083015184820360808601526121008282612025565b91505060a083015161211560a0860182612007565b508091505092915050565b612129816123f0565b82525050565b612138816123f0565b82525050565b6121478161241e565b82525050565b6121568161241e565b82525050565b61216581612428565b82525050565b61217481612428565b82525050565b600060208201905061218f6000830184611f8b565b92915050565b600060208201905081810360008301526121af8184611f9a565b905092915050565b60006020820190506121cc6000830184611ff8565b92915050565b600060208201905081810360008301526121ec8184612097565b905092915050565b6000602082019050612209600083018461214d565b92915050565b600060c082019050612224600083018961216b565b612231602083018861212f565b61223e6040830187612016565b61224b6060830186612016565b818103608083015261225d818561205e565b905061226c60a0830184612016565b979650505050505050565b6000604051905081810181811067ffffffffffffffff8211171561229e5761229d612553565b5b8060405250919050565b600067ffffffffffffffff8211156122c3576122c2612553565b5b601f19601f8301169050602081019050919050565b6000819050602082019050919050565b600081519050919050565b600081519050919050565b6000602082019050919050565b600082825260208201905092915050565b600082825260208201905092915050565b600082825260208201905092915050565b60006123498261241e565b91506123548361241e565b9250827fffffffffffffffffffffffffffffffffffffffffffffffffffffffffffffffff03821115612389576123886124f5565b5b828201905092915050565b600061239f8261241e565b91506123aa8361241e565b9250828210156123bd576123bc6124f5565b5b828203905092915050565b60006123d3826123fe565b9050919050565b60008115159050919050565b6000819050919050565b600061ffff82169050919050565b600073ffffffffffffffffffffffffffffffffffffffff82169050919050565b6000819050919050565b600063ffffffff82169050919050565b82818337600083830152505050565b60005b8381101561246557808201518184015260208101905061244a565b83811115612474576000848401525b50505050565b6000600282049050600182168061249257607f821691505b602082108114156124a6576124a5612524565b5b50919050565b60006124b78261241e565b91507fffffffffffffffffffffffffffffffffffffffffffffffffffffffffffffffff8214156124ea576124e96124f5565b5b600182019050919050565b7f4e487b7100000000000000000000000000000000000000000000000000000000600052601160045260246000fd5b7f4e487b7100000000000000000000000000000000000000000000000000000000600052602260045260246000fd5b7f4e487b7100000000000000000000000000000000000000000000000000000000600052604160045260246000fd5b6000601f19601f8301169050919050565b61259c816123c8565b81146125a757600080fd5b50565b6125b3816123e6565b81146125be57600080fd5b50565b6125ca816123f0565b81146125d557600080fd5b50565b6125e18161241e565b81146125ec57600080fd5b50565b6125f881612428565b811461260357600080fd5b5056fea2646970667358221220669272f3e8d51131d3d90298711d2944be7611194628bb0f5c09e0d4cf6633de64736f6c63430008000033",
  "immutableReferences": {},
  "source": "// SPDX-License-Identifier: MIT\npragma solidity = 0.8.0;\n\nimport \"./librairies/ERC721.sol\";\nimport \"./librairies/SafeMath.sol\";\nimport \"./Marketplace.sol\";\n\n\ncontract PropertyOwnership is Marketplace, ERC721 {\n\n    using SafeMath for uint256;\n\n    mapping (uint => address) saleApprovals;\n\n    function balanceOf(address _owner) public override view returns (uint256 _balance) {\n        return ownerPropertyCount[_owner];\n    }\n\n    function ownerOf(uint256 _tokenId) public override view returns (address _owner) {\n        return propertyToOwner[_tokenId];\n    }\n\n    function transfer(address _to, uint256 _tokenId) public override onlyOwnerOf(_tokenId) {\n        _transfer(msg.sender, _to, _tokenId);\n    }\n\n    function approve(address _to, uint256 _tokenId) public override onlyOwnerOf(_tokenId) {\n        saleApprovals[_tokenId] = _to;\n        emit Approval(msg.sender, _to, _tokenId);\n    }\n\n    function takeOwnership(uint256 _tokenId) public override {\n        require(saleApprovals[_tokenId] == msg.sender);\n        address owner = ownerOf(_tokenId);\n        _transfer(owner, msg.sender, _tokenId);\n    }\n\n    function _transfer(address _from, address _to, uint256 _tokenId) private {\n        ownerPropertyCount[_to] = ownerPropertyCount[_to].add(1);\n        ownerPropertyCount[msg.sender] = ownerPropertyCount[msg.sender].sub(1);\n        propertyToOwner[_tokenId] = _to;\n        emit Transfer(_from, _to, _tokenId);\n    }\n}\n",
  "sourcePath": "/home/shengael/Documents/__esgi/2020_2021/blockchain/BLAPimmo/contracts/PropertyOwnership.sol",
  "compiler": {
    "name": "solc",
    "version": "0.8.0+commit.c7dfd78e.Emscripten.clang"
  },
  "schemaVersion": "3.3.3",
  "updatedAt": "2021-01-18T22:40:22.307Z",
  "networkType": "ethereum",
  "devdoc": {
    "kind": "dev",
    "methods": {
      "ownable()": {
        "details": "The Ownable constructor sets the original `owner` of the contract to the sender account."
      },
      "transferOwnership(address)": {
        "details": "Allows the current owner to transfer control of the contract to a newOwner.",
        "params": {
          "newOwner": "The address to transfer ownership to."
        }
      }
    },
    "version": 1
  },
  "userdoc": {
    "kind": "user",
    "methods": {},
    "version": 1
  }
}