{
  "contractName": "PropertyFactory",
  "abi": [
    {
      "anonymous": false,
      "inputs": [
        {
          "indexed": true,
          "internalType": "address",
          "name": "previousOwner",
          "type": "address"
        },
        {
          "indexed": true,
          "internalType": "address",
          "name": "newOwner",
          "type": "address"
        }
      ],
      "name": "OwnershipTransferred",
      "type": "event"
    },
    {
      "inputs": [],
      "name": "ownable",
      "outputs": [],
      "stateMutability": "nonpayable",
      "type": "function"
    },
    {
      "inputs": [],
      "name": "owner",
      "outputs": [
        {
          "internalType": "address",
          "name": "",
          "type": "address"
        }
      ],
      "stateMutability": "view",
      "type": "function"
    },
    {
      "inputs": [
        {
          "internalType": "address",
          "name": "",
          "type": "address"
        },
        {
          "internalType": "uint256",
          "name": "",
          "type": "uint256"
        }
      ],
      "name": "ownerToProperties",
      "outputs": [
        {
          "internalType": "uint256",
          "name": "",
          "type": "uint256"
        }
      ],
      "stateMutability": "view",
      "type": "function"
    },
    {
      "inputs": [
        {
          "internalType": "uint256",
          "name": "",
          "type": "uint256"
        }
      ],
      "name": "properties",
      "outputs": [
        {
          "internalType": "uint32",
          "name": "price",
          "type": "uint32"
        },
        {
          "internalType": "uint16",
          "name": "surface",
          "type": "uint16"
        },
        {
          "internalType": "bytes32",
          "name": "addr",
          "type": "bytes32"
        },
        {
          "internalType": "bytes32",
          "name": "name",
          "type": "bytes32"
        },
        {
          "internalType": "string",
          "name": "description",
          "type": "string"
        },
        {
          "internalType": "bytes32",
          "name": "dateUtc",
          "type": "bytes32"
        }
      ],
      "stateMutability": "view",
      "type": "function"
    },
    {
      "inputs": [
        {
          "internalType": "uint256",
          "name": "",
          "type": "uint256"
        }
      ],
      "name": "propertyToOwner",
      "outputs": [
        {
          "internalType": "address",
          "name": "",
          "type": "address"
        }
      ],
      "stateMutability": "view",
      "type": "function"
    },
    {
      "inputs": [
        {
          "internalType": "address",
          "name": "newOwner",
          "type": "address"
        }
      ],
      "name": "transferOwnership",
      "outputs": [],
      "stateMutability": "nonpayable",
      "type": "function"
    },
    {
      "inputs": [
        {
          "internalType": "uint32",
          "name": "price",
          "type": "uint32"
        },
        {
          "internalType": "uint16",
          "name": "surface",
          "type": "uint16"
        },
        {
          "internalType": "bytes32",
          "name": "name",
          "type": "bytes32"
        },
        {
          "internalType": "bytes32",
          "name": "addr",
          "type": "bytes32"
        },
        {
          "internalType": "string",
          "name": "description",
          "type": "string"
        },
        {
          "internalType": "bytes32",
          "name": "dateUtc",
          "type": "bytes32"
        }
      ],
      "name": "createProperty",
      "outputs": [],
      "stateMutability": "nonpayable",
      "type": "function"
    },
    {
      "inputs": [
        {
          "internalType": "uint256",
          "name": "propertyId",
          "type": "uint256"
        }
      ],
      "name": "getProperty",
      "outputs": [
        {
          "components": [
            {
              "internalType": "uint32",
              "name": "price",
              "type": "uint32"
            },
            {
              "internalType": "uint16",
              "name": "surface",
              "type": "uint16"
            },
            {
              "internalType": "bytes32",
              "name": "addr",
              "type": "bytes32"
            },
            {
              "internalType": "bytes32",
              "name": "name",
              "type": "bytes32"
            },
            {
              "internalType": "string",
              "name": "description",
              "type": "string"
            },
            {
              "internalType": "bytes32",
              "name": "dateUtc",
              "type": "bytes32"
            }
          ],
          "internalType": "struct PropertyFactory.Property",
          "name": "_property",
          "type": "tuple"
        }
      ],
      "stateMutability": "view",
      "type": "function"
    },
    {
      "inputs": [],
      "name": "getPropertiesByOwner",
      "outputs": [
        {
          "internalType": "uint256[]",
          "name": "_properties",
          "type": "uint256[]"
        }
      ],
      "stateMutability": "view",
      "type": "function"
    }
  ],
  "bytecode": "0x608060405234801561001057600080fd5b50611115806100206000396000f3fe608060405234801561001057600080fd5b50600436106100935760003560e01c80638da5cb5b116100665780638da5cb5b14610132578063b38854be14610150578063e797888e1461015a578063f2fde38b1461018a578063f7b10808146101a657610093565b80630b56e383146100985780631eba13c1146100c85780632734e146146100e657806332665ffb14610102575b600080fd5b6100b260048036038101906100ad9190610aba565b6101db565b6040516100bf9190610d7c565b60405180910390f35b6100d061020e565b6040516100dd9190610d97565b60405180910390f35b61010060048036038101906100fb9190610ae3565b6102a3565b005b61011c60048036038101906101179190610aba565b610457565b6040516101299190610db9565b60405180910390f35b61013a6105c0565b6040516101479190610d7c565b60405180910390f35b6101586105e4565b005b610174600480360381019061016f9190610a7e565b610626565b6040516101819190610ddb565b60405180910390f35b6101a4600480360381019061019f9190610a55565b610657565b005b6101c060048036038101906101bb9190610aba565b6107a6565b6040516101d296959493929190610df6565b60405180910390f35b60026020528060005260406000206000915054906101000a900473ffffffffffffffffffffffffffffffffffffffff1681565b6060600360003373ffffffffffffffffffffffffffffffffffffffff1673ffffffffffffffffffffffffffffffffffffffff16815260200190815260200160002080548060200260200160405190810160405280929190818152602001828054801561029957602002820191906000526020600020905b815481526020019060010190808311610285575b5050505050905090565b6000600180549050905060016040518060c001604052808963ffffffff1681526020018861ffff16815260200186815260200187815260200185815260200184815250908060018154018082558091505060019003906000526020600020906005020160009091909190915060008201518160000160006101000a81548163ffffffff021916908363ffffffff16021790555060208201518160000160046101000a81548161ffff021916908361ffff16021790555060408201518160010155606082015181600201556080820151816003019080519060200190610389929190610898565b5060a082015181600401555050336002600083815260200190815260200160002060006101000a81548173ffffffffffffffffffffffffffffffffffffffff021916908373ffffffffffffffffffffffffffffffffffffffff160217905550600360003373ffffffffffffffffffffffffffffffffffffffff1673ffffffffffffffffffffffffffffffffffffffff16815260200190815260200160002081908060018154018082558091505060019003906000526020600020016000909190919091505550505050505050565b61045f61091e565b816001805490501161047057600080fd5b600182815481106104aa577f4e487b7100000000000000000000000000000000000000000000000000000000600052603260045260246000fd5b90600052602060002090600502016040518060c00160405290816000820160009054906101000a900463ffffffff1663ffffffff1663ffffffff1681526020016000820160049054906101000a900461ffff1661ffff1661ffff168152602001600182015481526020016002820154815260200160038201805461052d90610fcb565b80601f016020809104026020016040519081016040528092919081815260200182805461055990610fcb565b80156105a65780601f1061057b576101008083540402835291602001916105a6565b820191906000526020600020905b81548152906001019060200180831161058957829003601f168201915b505050505081526020016004820154815250509050919050565b60008054906101000a900473ffffffffffffffffffffffffffffffffffffffff1681565b336000806101000a81548173ffffffffffffffffffffffffffffffffffffffff021916908373ffffffffffffffffffffffffffffffffffffffff160217905550565b6003602052816000526040600020818154811061064257600080fd5b90600052602060002001600091509150505481565b60008054906101000a900473ffffffffffffffffffffffffffffffffffffffff1673ffffffffffffffffffffffffffffffffffffffff163373ffffffffffffffffffffffffffffffffffffffff16146106af57600080fd5b600073ffffffffffffffffffffffffffffffffffffffff168173ffffffffffffffffffffffffffffffffffffffff1614156106e957600080fd5b8073ffffffffffffffffffffffffffffffffffffffff1660008054906101000a900473ffffffffffffffffffffffffffffffffffffffff1673ffffffffffffffffffffffffffffffffffffffff167f8be0079c531659141344cd1fd0a4f28419497f9722a3daafe3b4186f6b6457e060405160405180910390a3806000806101000a81548173ffffffffffffffffffffffffffffffffffffffff021916908373ffffffffffffffffffffffffffffffffffffffff16021790555050565b600181815481106107b657600080fd5b90600052602060002090600502016000915090508060000160009054906101000a900463ffffffff16908060000160049054906101000a900461ffff169080600101549080600201549080600301805461080f90610fcb565b80601f016020809104026020016040519081016040528092919081815260200182805461083b90610fcb565b80156108885780601f1061085d57610100808354040283529160200191610888565b820191906000526020600020905b81548152906001019060200180831161086b57829003601f168201915b5050505050908060040154905086565b8280546108a490610fcb565b90600052602060002090601f0160209004810192826108c6576000855561090d565b82601f106108df57805160ff191683800117855561090d565b8280016001018555821561090d579182015b8281111561090c5782518255916020019190600101906108f1565b5b50905061091a9190610967565b5090565b6040518060c00160405280600063ffffffff168152602001600061ffff168152602001600080191681526020016000801916815260200160608152602001600080191681525090565b5b80821115610980576000816000905550600101610968565b5090565b600061099761099284610e8f565b610e5e565b9050828152602081018484840111156109af57600080fd5b6109ba848285610f89565b509392505050565b6000813590506109d18161106c565b92915050565b6000813590506109e681611083565b92915050565b600082601f8301126109fd57600080fd5b8135610a0d848260208601610984565b91505092915050565b600081359050610a258161109a565b92915050565b600081359050610a3a816110b1565b92915050565b600081359050610a4f816110c8565b92915050565b600060208284031215610a6757600080fd5b6000610a75848285016109c2565b91505092915050565b60008060408385031215610a9157600080fd5b6000610a9f858286016109c2565b9250506020610ab085828601610a2b565b9150509250929050565b600060208284031215610acc57600080fd5b6000610ada84828501610a2b565b91505092915050565b60008060008060008060c08789031215610afc57600080fd5b6000610b0a89828a01610a40565b9650506020610b1b89828a01610a16565b9550506040610b2c89828a016109d7565b9450506060610b3d89828a016109d7565b935050608087013567ffffffffffffffff811115610b5a57600080fd5b610b6689828a016109ec565b92505060a0610b7789828a016109d7565b9150509295509295509295565b6000610b908383610d40565b60208301905092915050565b610ba581610f25565b82525050565b6000610bb682610ecf565b610bc08185610ef2565b9350610bcb83610ebf565b8060005b83811015610bfc578151610be38882610b84565b9750610bee83610ee5565b925050600181019050610bcf565b5085935050505092915050565b610c1281610f37565b82525050565b610c2181610f37565b82525050565b6000610c3282610eda565b610c3c8185610f03565b9350610c4c818560208601610f98565b610c558161105b565b840191505092915050565b6000610c6b82610eda565b610c758185610f14565b9350610c85818560208601610f98565b610c8e8161105b565b840191505092915050565b600060c083016000830151610cb16000860182610d5e565b506020830151610cc46020860182610d22565b506040830151610cd76040860182610c09565b506060830151610cea6060860182610c09565b5060808301518482036080860152610d028282610c27565b91505060a0830151610d1760a0860182610c09565b508091505092915050565b610d2b81610f41565b82525050565b610d3a81610f41565b82525050565b610d4981610f6f565b82525050565b610d5881610f6f565b82525050565b610d6781610f79565b82525050565b610d7681610f79565b82525050565b6000602082019050610d916000830184610b9c565b92915050565b60006020820190508181036000830152610db18184610bab565b905092915050565b60006020820190508181036000830152610dd38184610c99565b905092915050565b6000602082019050610df06000830184610d4f565b92915050565b600060c082019050610e0b6000830189610d6d565b610e186020830188610d31565b610e256040830187610c18565b610e326060830186610c18565b8181036080830152610e448185610c60565b9050610e5360a0830184610c18565b979650505050505050565b6000604051905081810181811067ffffffffffffffff82111715610e8557610e8461102c565b5b8060405250919050565b600067ffffffffffffffff821115610eaa57610ea961102c565b5b601f19601f8301169050602081019050919050565b6000819050602082019050919050565b600081519050919050565b600081519050919050565b6000602082019050919050565b600082825260208201905092915050565b600082825260208201905092915050565b600082825260208201905092915050565b6000610f3082610f4f565b9050919050565b6000819050919050565b600061ffff82169050919050565b600073ffffffffffffffffffffffffffffffffffffffff82169050919050565b6000819050919050565b600063ffffffff82169050919050565b82818337600083830152505050565b60005b83811015610fb6578082015181840152602081019050610f9b565b83811115610fc5576000848401525b50505050565b60006002820490506001821680610fe357607f821691505b60208210811415610ff757610ff6610ffd565b5b50919050565b7f4e487b7100000000000000000000000000000000000000000000000000000000600052602260045260246000fd5b7f4e487b7100000000000000000000000000000000000000000000000000000000600052604160045260246000fd5b6000601f19601f8301169050919050565b61107581610f25565b811461108057600080fd5b50565b61108c81610f37565b811461109757600080fd5b50565b6110a381610f41565b81146110ae57600080fd5b50565b6110ba81610f6f565b81146110c557600080fd5b50565b6110d181610f79565b81146110dc57600080fd5b5056fea2646970667358221220f26a5c37c5de01d56f7cf8e2dc279e8d2d87316aa449a541ce4d3920603ecd2764736f6c63430008000033",
  "immutableReferences": {},
  "source": "// SPDX-License-Identifier: MIT\r\npragma solidity = 0.8.0;\r\n\r\nimport \"./librairies/Ownable.sol\";\r\nimport \"./librairies/SafeMath.sol\";\r\n\r\ncontract PropertyFactory is Ownable {\r\n\r\n    using SafeMath for uint256;\r\n\r\n    modifier onlyOwnerOf(uint _propertyId) {\r\n        require(msg.sender == propertyToOwner[_propertyId]);\r\n        _;\r\n    }\r\n\r\n    struct Property {\r\n        uint32 price;\r\n        uint16 surface;\r\n        bytes32 addr;\r\n        bytes32 name;\r\n        string description;\r\n        bytes32 dateUtc;\r\n    }\r\n\r\n    Property[] public properties;\r\n\r\n    mapping (uint => address) public propertyToOwner;\r\n    mapping (address => uint[]) public ownerToProperties;\r\n    mapping (address => uint) ownerPropertyCount;\r\n\r\n    function createProperty(\r\n        uint32 price,\r\n        uint16 surface,\r\n        bytes32 name,\r\n        bytes32 addr,\r\n        string memory description,\r\n        bytes32 dateUtc\r\n    ) public {\r\n        uint id = properties.length;\r\n        properties.push(Property(price, surface, addr, name, description, dateUtc));\r\n        propertyToOwner[id] = msg.sender;\r\n        ownerToProperties[msg.sender].push(id);\r\n    }\r\n\r\n    function getProperty(uint propertyId) public view returns (Property memory _property) {\r\n        require(properties.length > propertyId);\r\n        return properties[propertyId];\r\n    }\r\n\r\n    function getPropertiesByOwner() public view returns (uint[] memory _properties) {\r\n        return ownerToProperties[msg.sender];\r\n    }\r\n\r\n}\r\n",
  "sourcePath": "D:\\ESGI\\blockchain\\chain\\contracts\\PropertyFactory.sol",
  "compiler": {
    "name": "solc",
    "version": "0.8.0+commit.c7dfd78e.Emscripten.clang"
  },
  "schemaVersion": "3.3.3",
  "updatedAt": "2021-01-19T00:02:40.084Z",
  "devdoc": {
    "kind": "dev",
    "methods": {
      "ownable()": {
        "details": "The Ownable constructor sets the original `owner` of the contract to the sender account."
      },
      "transferOwnership(address)": {
        "details": "Allows the current owner to transfer control of the contract to a newOwner.",
        "params": {
          "newOwner": "The address to transfer ownership to."
        }
      }
    },
    "version": 1
  },
  "userdoc": {
    "kind": "user",
    "methods": {},
    "version": 1
  }
}